{
  "address": "0x2279B7A0a67DB372996a5FaB50D91eAA73d2eBe6",
  "abi": [
    {
      "inputs": [
        {
          "internalType": "address",
          "name": "_plateformCAddress",
          "type": "address"
        }
      ],
      "stateMutability": "nonpayable",
      "type": "constructor"
    },
    {
      "anonymous": false,
      "inputs": [
        {
          "indexed": true,
          "internalType": "address",
          "name": "associationContract",
          "type": "address"
        },
        {
          "indexed": true,
          "internalType": "address",
          "name": "creator",
          "type": "address"
        }
      ],
      "name": "AssociationContractDeployed",
      "type": "event"
    },
    {
      "inputs": [
        {
          "internalType": "address",
          "name": "",
          "type": "address"
        }
      ],
      "name": "associations",
      "outputs": [
        {
          "internalType": "enum AssociationFactory.Status",
          "name": "",
          "type": "uint8"
        }
      ],
      "stateMutability": "view",
      "type": "function"
    },
    {
      "inputs": [
        {
          "internalType": "uint256",
          "name": "",
          "type": "uint256"
        }
      ],
      "name": "associationsArray",
      "outputs": [
        {
          "internalType": "address",
          "name": "",
          "type": "address"
        }
      ],
      "stateMutability": "view",
      "type": "function"
    },
    {
      "inputs": [],
      "name": "associationsCount",
      "outputs": [
        {
          "internalType": "uint256",
          "name": "",
          "type": "uint256"
        }
      ],
      "stateMutability": "view",
      "type": "function"
    },
    {
      "inputs": [
        {
          "internalType": "address",
          "name": "_associationAddress",
          "type": "address"
        },
        {
          "internalType": "enum AssociationFactory.Status",
          "name": "_status",
          "type": "uint8"
        }
      ],
      "name": "changeAssociationStatus",
      "outputs": [],
      "stateMutability": "nonpayable",
      "type": "function"
    },
    {
      "inputs": [
        {
          "internalType": "string",
          "name": "_name",
          "type": "string"
        },
        {
          "internalType": "string",
          "name": "_description",
          "type": "string"
        },
        {
          "internalType": "string",
          "name": "_email",
          "type": "string"
        },
        {
          "internalType": "string",
          "name": "_phoneNumber",
          "type": "string"
        },
        {
          "internalType": "string",
          "name": "_country",
          "type": "string"
        },
        {
          "internalType": "string",
          "name": "_streetAddress",
          "type": "string"
        },
        {
          "internalType": "string",
          "name": "_city",
          "type": "string"
        },
        {
          "internalType": "string",
          "name": "_state",
          "type": "string"
        },
        {
          "internalType": "string",
          "name": "_postalCode",
          "type": "string"
        },
        {
          "internalType": "uint256",
          "name": "_creationDate",
          "type": "uint256"
        },
        {
          "internalType": "uint256",
          "name": "_size",
          "type": "uint256"
        }
      ],
      "name": "deployAssociationContract",
      "outputs": [
        {
          "internalType": "address",
          "name": "",
          "type": "address"
        }
      ],
      "stateMutability": "nonpayable",
      "type": "function"
    },
    {
      "inputs": [],
      "name": "getAssociationsWithStatus",
      "outputs": [
        {
          "components": [
            {
              "internalType": "address",
              "name": "associationAddress",
              "type": "address"
            },
            {
              "internalType": "enum AssociationFactory.Status",
              "name": "status",
              "type": "uint8"
            }
          ],
          "internalType": "struct AssociationFactory.AssociationInfo[]",
          "name": "",
          "type": "tuple[]"
        }
      ],
      "stateMutability": "view",
      "type": "function"
    },
    {
      "inputs": [],
      "name": "plateformAddress",
      "outputs": [
        {
          "internalType": "address",
          "name": "",
          "type": "address"
        }
      ],
      "stateMutability": "view",
      "type": "function"
    },
    {
      "inputs": [
        {
          "internalType": "address",
          "name": "_plateformAddress",
          "type": "address"
        }
      ],
      "name": "setPlateformAddress",
      "outputs": [],
      "stateMutability": "nonpayable",
      "type": "function"
    }
  ],
  "transactionHash": "0x2466ddff7d6b7b09930a7d41ee3223e4715fd72052a54f8f6529847ff18825d8",
  "args": [
    "0xa513E6E4b8f2a923D98304ec87F64353C4D5C853"
  ],
  "numDeployments": 2,
  "solcInputHash": "ca19f9276b9f7309b9d413af9e4dc731",
  "bytecode": "0x60803461007457601f61263538819003918201601f19168301916001600160401b038311848410176100795780849260209460405283398101031261007457516001600160a01b0381169081900361007457600080546001600160a01b0319169190911790556040516125a590816100908239f35b600080fd5b634e487b7160e01b600052604160045260246000fdfe608060408181526004803610156200001657600080fd5b600092833560e01c9081632dbdb039146200065e575080632e2e03f4146200063d5780633d8a824914620005f85780633f57716c146200059657806395d1d4c51462000548578063b600065a14620003e1578063cdf13cee14620003945763f7de94d2146200008457600080fd5b346200038d576101609283600319360112620003915767ffffffffffffffff9282358481116200038d57620000bd903690850162000754565b946024358581116200038957620000d8903690860162000754565b956044358681116200038557620000f3903690870162000754565b9660643587811162000381576200010e903690880162000754565b6084358881116200037d5762000128903690890162000754565b60a4358981116200037957620001429036908a0162000754565b9060c4358a811162000375576200015d9036908b0162000754565b9260e4359b8b8d116200037157620001808b8d9e9d999a9b9c9d36910162000754565b95610104359d8e116200036d576200019f8d9e9d8d9e36910162000754565b97620001b760018060a01b03809e5416331462000800565b8b519a611cd6808d019b8c118d8d1017620003585795620002426200026f968f8f9e9d9b97908f918f6200028e9f9c620002609a6200027e9f9a6200021790620002519b620002269462000233996200089a903980865285019062000857565b90838203602085015262000857565b9281840391015262000857565b8d810360608f01529062000857565b908b820360808d015262000857565b9089820360a08b015262000857565b9087820360c089015262000857565b9085820360e087015262000857565b9083820361010085015262000857565b906101243561012082015261014061014435910152039084f080156200034e5782168084526001602052818420805460ff19169055600254909290600160401b8110156200033b5760209550806001620002ec920160025562000684565b819291549060031b9185831b921b19161790556200030c600354620007c5565b6003555191817f6c049d762e656d4ad78d1b1022f753436de8ff70945e4e38dced611f2993f537339280a38152f35b634e487b7160e01b855260418652602485fd5b81513d85823e3d90fd5b508f8f6041602492634e487b7160e01b835252fd5b8b80fd5b8980fd5b8880fd5b8780fd5b8680fd5b8580fd5b8480fd5b8380fd5b8280fd5b80fd5b8334620003915760203660031901126200039157620003b2620006b6565b8154906001600160a01b0390620003cd828416331462000800565b6001600160a01b0319909216911617815580f35b5090346200038d57826003193601126200038d57600391825492620004106200040a85620007ac565b6200072d565b9380855262000422601f1991620007ac565b01855b818110620005265750506002805491865b838110620004a2578551602080825288518183018190528291828a0191818c01918d8c5b838210620004685786860387f35b918496508260019294966200049183809851868060a01b038151168452015184830190620006d2565b01960192018695949293916200045a565b620004ad8162000684565b905490831b1c6001600160a01b031680895260016020908152878a205460ff1690620004d8620006f6565b9283528582101562000513578201526200050d9190620004f9828a620007eb565b52620005068189620007eb565b50620007c5565b62000436565b634e487b7160e01b8b526021885260248bfd5b60209062000533620006f6565b88815282898183015282890101520162000425565b505034620005925760203660031901126200059257602091620005909060ff9083906001600160a01b036200057c620006b6565b1681526001865220541691518092620006d2565bf35b5080fd5b5050346200059257806003193601126200059257620005b4620006b6565b90602435916002831015620003895783546001600160a01b039190620005de908316331462000800565b168352600160205282209060ff8019835416911617905580f35b50346200038d5760203660031901126200038d5735916002548310156200039157506200062760209262000684565b905491519160018060a01b039160031b1c168152f35b50503462000592578160031936011262000592576020906003549051908152f35b849034620005925781600319360112620005925790546001600160a01b03168152602090f35b600254811015620006a057600260005260206000200190600090565b634e487b7160e01b600052603260045260246000fd5b600435906001600160a01b0382168203620006cd57565b600080fd5b906002821015620006e05752565b634e487b7160e01b600052602160045260246000fd5b604051906040820182811067ffffffffffffffff8211176200071757604052565b634e487b7160e01b600052604160045260246000fd5b6040519190601f01601f1916820167ffffffffffffffff8111838210176200071757604052565b81601f82011215620006cd5780359067ffffffffffffffff8211620007175762000788601f8301601f19166020016200072d565b9282845260208383010111620006cd57816000926020809301838601378301015290565b67ffffffffffffffff8111620007175760051b60200190565b6000198114620007d55760010190565b634e487b7160e01b600052601160045260246000fd5b8051821015620006a05760209160051b010190565b156200080857565b60405162461bcd60e51b815260206004820152602160248201527f4f6e6c792061646d696e2063616e2063616c6c20746869732066756e6374696f6044820152603760f91b6064820152608490fd5b919082519283825260005b84811062000884575050826000602080949584010152601f8019910116010190565b6020818301810151848301820152016200086256fe60806040523462000e9d5762001cd6803803806200001d8162000ea2565b9283398101906101608183031262000e9d5780516001600160401b03811162000e9d57826200004e91830162000eed565b60208201519091906001600160401b03811162000e9d57836200007391830162000eed565b60408201519093906001600160401b03811162000e9d57816200009891840162000eed565b60608301519091906001600160401b03811162000e9d5781620000bd91850162000eed565b60808401519091906001600160401b03811162000e9d5781620000e291860162000eed565b60a08501516001600160401b03811162000e9d57826200010491870162000eed565b60c08601516001600160401b03811162000e9d57836200012691880162000eed565b60e08701519092906001600160401b03811162000e9d57846200014b91890162000eed565b61010088015190946001600160401b03821162000e9d576200016f91890162000eed565b9461014061012089015198015196895160018060401b0381116200070257600054600181811c9116801562000e92575b6020821014620006e157601f811162000e3e575b50806020601f821160011462000dc55760009162000db9575b508160011b916000199060031b1c1916176000555b8a516001600160401b0381116200070257600154600181811c9116801562000dae575b6020821014620006e157601f811162000d55575b50806020601f821160011462000cd95760009162000ccd575b508160011b916000199060031b1c1916176001555b80516001600160401b0381116200070257600254600181811c9116801562000cc2575b6020821014620006e157601f811162000c69575b50806020601f821160011462000bf15760009162000be5575b508160011b916000199060031b1c1916176002555b81516001600160401b0381116200070257600354600181811c9116801562000bda575b6020821014620006e157601f811162000b70575b50806020601f821160011462000ae75760009162000adb575b508160011b916000199060031b1c1916176003555b82516001600160401b0381116200070257600454600181811c9116801562000ad0575b6020821014620006e157601f811162000a66575b50806020601f8211600114620009dd57600091620009d1575b508160011b916000199060031b1c1916176004555b83516001600160401b0381116200070257600554600181811c91168015620009c6575b6020821014620006e157601f811162000978575b50806020601f8211600114620008ee57600091620008e2575b508160011b916000199060031b1c1916176005555b84516001600160401b0381116200070257600654600181811c91168015620008d7575b6020821014620006e157601f811162000882575b50806020601f82116001146200080957600091620007fd575b508160011b916000199060031b1c1916176006555b85516001600160401b0381116200070257600754600181811c91168015620007f2575b6020821014620006e157601f81116200079d575b50806020601f8211600114620007245760009162000718575b508160011b916000199060031b1c1916176007555b86516001600160401b0381116200070257600854600181811c91168015620006f7575b6020821014620006e157601f81116200068c575b50806020601f8211600114620006125760009162000606575b508160011b916000199060031b1c1916176008555b8860095587600a556040519a8b9a6101608c526101608c016200052c9162000f44565b8b810360208d01526200053f9162000f44565b8a810360408c0152620005529162000f44565b89810360608b0152620005659162000f44565b88810360808a0152620005789162000f44565b87810360a08901526200058b9162000f44565b86810360c08801526200059e9162000f44565b85810360e0870152620005b19162000f44565b848103610100860152620005c59162000f44565b91610120840152610140830152037feca0287598c139ba73472fe0224d6fffe381f4f37387c28b9330b64645e64c5691a1604051610caa908162000f6c8239f35b905088015138620004f4565b60086000908152925060008051602062001c76833981519152905b8a601f19841685106200067457506001935082601f198116106200065a575b5050811b0160085562000509565b8a015160001960f88460031b161c1916905538806200064c565b8101518255602093840193600190920191016200062d565b600860005260008051602062001c76833981519152601f830160051c810160208410620006d9575b601f830160051c82018110620006cc575050620004db565b60008155600101620006b4565b5080620006b4565b634e487b7160e01b600052602260045260246000fd5b90607f1690620004c7565b634e487b7160e01b600052604160045260246000fd5b9050870151386200048f565b60076000908152925060008051602062001c56833981519152905b601f198316841062000784576001935082601f198116106200076a575b5050811b01600755620004a4565b89015160001960f88460031b161c1916905538806200075c565b898101518255602093840193600190920191016200073f565b600760005260008051602062001c56833981519152601f830160051c810160208410620007ea575b601f830160051c82018110620007dd57505062000476565b60008155600101620007c5565b5080620007c5565b90607f169062000462565b9050860151386200042a565b60066000908152925060008051602062001cb6833981519152905b601f198316841062000869576001935082601f198116106200084f575b5050811b016006556200043f565b88015160001960f88460031b161c19169055388062000841565b8881015182556020938401936001909201910162000824565b600660005260008051602062001cb6833981519152601f830160051c810160208410620008cf575b601f830160051c82018110620008c257505062000411565b60008155600101620008aa565b5080620008aa565b90607f1690620003fd565b905085015138620003c5565b6005600090815292507f036b6384b5eca791c62761152d0c79bb0604c104a5fb6f4eb0703f3154bb3db0905b601f19831684106200095f576001935082601f1981161062000945575b5050811b01600555620003da565b87015160001960f88460031b161c19169055388062000937565b878101518255602093840193600190920191016200091a565b60056000526020600020601f830160051c81019160208410620009bb575b601f0160051c01905b818110620009ae5750620003ac565b600081556001016200099f565b909150819062000996565b90607f169062000398565b90508401513862000360565b600460009081527f8a35acfbc15ff81a39ae7d344fd709f28e8600b4aa8c65c6b64bfe7fe36bd19b9250601f198416905b81811062000a4d5750908360019493921062000a33575b5050811b0160045562000375565b86015160001960f88460031b161c19169055388062000a25565b9192602060018192868b01518155019401920162000a0e565b60046000527f8a35acfbc15ff81a39ae7d344fd709f28e8600b4aa8c65c6b64bfe7fe36bd19b601f830160051c8101916020841062000ac5575b601f0160051c01905b81811062000ab8575062000347565b6000815560010162000aa9565b909150819062000aa0565b90607f169062000333565b905083015138620002fb565b600360009081527fc2575a0e9e593c00f959f8c92f12db2869c3395a3b0502d05e2516446f71f85b9250601f198416905b81811062000b575750908360019493921062000b3d575b5050811b0160035562000310565b85015160001960f88460031b161c19169055388062000b2f565b9192602060018192868a01518155019401920162000b18565b60036000527fc2575a0e9e593c00f959f8c92f12db2869c3395a3b0502d05e2516446f71f85b601f830160051c8101916020841062000bcf575b601f0160051c01905b81811062000bc25750620002e2565b6000815560010162000bb3565b909150819062000baa565b90607f1690620002ce565b90508201513862000296565b6002600090815260008051602062001c168339815191529250601f198416905b81811062000c505750908360019493921062000c36575b5050811b01600255620002ab565b84015160001960f88460031b161c19169055388062000c28565b9192602060018192868901518155019401920162000c11565b600260005260008051602062001c16833981519152601f830160051c8101916020841062000cb7575b601f0160051c01905b81811062000caa57506200027d565b6000815560010162000c9b565b909150819062000c92565b90607f169062000269565b90508c01513862000231565b600160009081528e935060008051602062001c968339815191529190601f198416905b81811062000d3a575093836001951062000d20575b505050811b0160015562000246565b015160001960f88460031b161c1916905538808e62000d11565b9482015183558f946001909301926020928301920162000cfc565b600160005260008051602062001c96833981519152601f830160051c8101916020841062000da3575b601f0160051c01905b81811062000d96575062000218565b6000815560010162000d87565b909150819062000d7e565b90607f169062000204565b90508b015138620001cc565b600080805260008051602062001c368339815191529250601f198416908e5b82821062000e24575050908360019493921062000e0a575b5050811b01600055620001e1565b8d015160001960f88460031b161c19169055388062000dfc565b600184956020939584930151815501940192018e62000de4565b6000805260008051602062001c36833981519152601f830160051c81016020841062000e8a575b601f830160051c8201811062000e7d575050620001b3565b6000815560010162000e65565b508062000e65565b90607f16906200019f565b600080fd5b6040519190601f01601f191682016001600160401b038111838210176200070257604052565b60005b83811062000edc5750506000910152565b818101518382015260200162000ecb565b81601f8201121562000e9d5780516001600160401b038111620007025762000f1f601f8201601f191660200162000ea2565b928184526020828401011162000e9d5762000f41916020808501910162000ec8565b90565b9060209162000f5f8151809281855285808601910162000ec8565b601f01601f191601019056fe608080604052600436101561001357600080fd5b60003560e01c90816305b34410146108135750806306fdde03146107f757806347d90576146107db5780637284e416146107bf578063747f3380146107a357806379eca431146103d3578063820e93f5146103b7578063949d225d14610399578063a8dfd7fe14610369578063c19d93fb146102a1578063d8b0b499146101bd5763fd0160fe146100a357600080fd5b346101b85760003660031901126101b85760405160009060065491600183811c8185169182156101ae575b602095868310841461019857828652869390811561017c5750600114610140575b505050819003601f01601f19168101916001600160401b0383118284101761012a5782916101269183604052808452830190610c34565b0390f35b634e487b7160e01b600052604160045260246000fd5b91925060066000528260002091836000935b83851061016857505050508201018238806100ef565b805487860183015293019284908201610152565b60ff1916868501525050151560051b83010190508238806100ef565b634e487b7160e01b600052602260045260246000fd5b90607f16906100ce565b600080fd5b346101b85760003660031901126101b85760405160009060045491600183811c818516918215610297575b602095868310841461019857828652869390811561027b575060011461023f57505050819003601f01601f19168101916001600160401b0383118284101761012a5782916101269183604052808452830190610c34565b91925060046000528260002091836000935b83851061026757505050508201018284806100ef565b805487860183015293019284908201610251565b60ff1916868501525050151560051b83010190508284806100ef565b90607f16906101e8565b346101b85760003660031901126101b85760405160009060075491600183811c81851691821561035f575b602095868310841461019857828652869390811561027b575060011461032357505050819003601f01601f19168101916001600160401b0383118284101761012a5782916101269183604052808452830190610c34565b91925060076000528260002091836000935b83851061034b57505050508201018284806100ef565b805487860183015293019284908201610335565b90607f16906102cc565b346101b85760003660031901126101b857610126610385610b90565b604051918291602083526020830190610c34565b346101b85760003660031901126101b8576020600a54604051908152f35b346101b85760003660031901126101b857610126610385610aec565b346101b85760003660031901126101b857600954600a54906103f361082e565b906103fc6109a5565b92610405610aec565b61040d610a48565b60405160006004548060011c90600181168015610799575b6020831081146101985782855290811561077d5750600114610726575b50819003601f01601f191681016001600160401b0381118282101761012a5760405261046c610901565b604051916000936006548060011c90600181161561071c575b60208210600182161461019857818652600181169081156106fe57506001146106a5575b506001600160401b03848603601f01601f191685019081119085111761012a5760006007548060011c90600181161561069b575b60208210600182161461019857868803601f01601f191687018290526001811690811561066e5750600114610601575b50601f19601f86880381018216870192839003011681019081106001600160401b0382111761012a57604052610541610b90565b956040519a8b9a610160808d528c0161055991610c34565b8b810360208d015261056a91610c34565b8a810360408c015261057b91610c34565b89810360608b015261058c91610c34565b88810360808a015261059d91610c34565b87810360a08901526105ae91610c34565b86810360c08801526105c09082610c34565b9186830360e088015281601f199103601f011601906105de91610c34565b8481036101008601526105f091610c34565b916101208401526101408301520390f35b600760009081529091507fa66cc928b5edb82af9bd49922954155ab7b0942694bea4ce44661d9a8736c6885b82821061064d5750858703601f01601f191686010160200190508b61050d565b6001816020925483858c601f8d8119920301168c010101520191019061062d565b60ff19166020601f19601f8a8c03011689018181019290925292151560051b0190910191508c905061050d565b90607f16906104dd565b60066000908152919550907ff652222313e28459528d920b65115c16c04f3efc82aaedc97be59f3f377c0d3f5b8282106106e8575060209150840101938a6104a9565b6001816020925483858a010152019101906106d2565b9050602092965060ff191682860152151560051b840101938a6104a9565b90607f1690610485565b600460009081529091507f8a35acfbc15ff81a39ae7d344fd709f28e8600b4aa8c65c6b64bfe7fe36bd19b5b82821061076757506020915082010188610442565b6001816020925483858801015201910190610752565b90506020925060ff191682840152151560051b82010188610442565b91607f1691610425565b346101b85760003660031901126101b857610126610385610a48565b346101b85760003660031901126101b8576101266103856109a5565b346101b85760003660031901126101b857610126610385610901565b346101b85760003660031901126101b85761012661038561082e565b346101b85760003660031901126101b8576020906009548152f35b6040519060008054600181811c908083169283156108f7575b60209384841081146108e3578388529081156108c7575060011461088c575b505050829003601f01601f191682016001600160401b0381118382101761012a57604052565b919250600080528260002091836000935b8385106108b35750505050830101388080610866565b80548886018301529301928490820161089d565b60ff1916878501525050151560051b8401019050388080610866565b634e487b7160e01b86526022600452602486fd5b91607f1691610847565b604051906000600554600181811c9080831692831561099b575b60209384841081146108e3578388529081156108c7575060011461095f57505050829003601f01601f191682016001600160401b0381118382101761012a57604052565b91925060056000528260002091836000935b8385106109875750505050830101388080610866565b805488860183015293019284908201610971565b91607f169161091b565b604051906000600180549081811c90808316928315610a3e575b60209384841081146108e3578388529081156108c75750600114610a0357505050829003601f01601f191682016001600160401b0381118382101761012a57604052565b809293506000528260002091836000935b838510610a2a5750505050830101388080610866565b805488860183015293019284908201610a14565b91607f16916109bf565b604051906000600354600181811c90808316928315610ae2575b60209384841081146108e3578388529081156108c75750600114610aa657505050829003601f01601f191682016001600160401b0381118382101761012a57604052565b91925060036000528260002091836000935b838510610ace5750505050830101388080610866565b805488860183015293019284908201610ab8565b91607f1691610a62565b604051906000600254600181811c90808316928315610b86575b60209384841081146108e3578388529081156108c75750600114610b4a57505050829003601f01601f191682016001600160401b0381118382101761012a57604052565b91925060026000528260002091836000935b838510610b725750505050830101388080610866565b805488860183015293019284908201610b5c565b91607f1691610b06565b604051906000600854600181811c90808316928315610c2a575b60209384841081146108e3578388529081156108c75750600114610bee57505050829003601f01601f191682016001600160401b0381118382101761012a57604052565b91925060086000528260002091836000935b838510610c165750505050830101388080610866565b805488860183015293019284908201610c00565b91607f1691610baa565b919082519283825260005b848110610c60575050826000602080949584010152601f8019910116010190565b602081830181015184830182015201610c3f56fea264697066735822122034fe01b76019e0c933e2d421919b1f0fc3868b6424c9e958d217ebb712564d9064736f6c63430008140033405787fa12a823e0f2b7631cc41b3ba8828b3321ca811111fa75cd3aa3bb5ace290decd9548b62a8d60345a988386fc84ba6bc95484008f6362f93160ef3e563a66cc928b5edb82af9bd49922954155ab7b0942694bea4ce44661d9a8736c688f3f7a9fe364faab93b216da50a3214154f22a0a2b415b23a84c8169e8b636ee3b10e2d527612073b26eecdfd717e6a320cf44b4afac2b0732d9fcbe2b7fa0cf6f652222313e28459528d920b65115c16c04f3efc82aaedc97be59f3f377c0d3fa2646970667358221220945c73b157945f6d1762e89ba11ac04781939e82911447f5960afd1db83d530264736f6c63430008140033",
  "devdoc": {
    "kind": "dev",
    "methods": {},
    "version": 1
  },
  "userdoc": {
    "kind": "user",
    "methods": {},
    "version": 1
  },
  "storageLayout": {
    "storage": [
      {
        "astId": 1116,
        "contract": "src/services/blockchain/contracts/Association/AssociationFactory.sol:AssociationFactory",
        "label": "plateformAddress",
        "offset": 0,
        "slot": "0",
        "type": "t_address"
      },
      {
        "astId": 1130,
        "contract": "src/services/blockchain/contracts/Association/AssociationFactory.sol:AssociationFactory",
        "label": "associations",
        "offset": 0,
        "slot": "1",
        "type": "t_mapping(t_address,t_enum(Status)1119)"
      },
      {
        "astId": 1133,
        "contract": "src/services/blockchain/contracts/Association/AssociationFactory.sol:AssociationFactory",
        "label": "associationsArray",
        "offset": 0,
        "slot": "2",
        "type": "t_array(t_address)dyn_storage"
      },
      {
        "astId": 1135,
        "contract": "src/services/blockchain/contracts/Association/AssociationFactory.sol:AssociationFactory",
        "label": "associationsCount",
        "offset": 0,
        "slot": "3",
        "type": "t_uint256"
      }
    ],
    "types": {
      "t_address": {
        "encoding": "inplace",
        "label": "address",
        "numberOfBytes": "20"
      },
      "t_array(t_address)dyn_storage": {
        "base": "t_address",
        "encoding": "dynamic_array",
        "label": "address[]",
        "numberOfBytes": "32"
      },
      "t_enum(Status)1119": {
        "encoding": "inplace",
        "label": "enum AssociationFactory.Status",
        "numberOfBytes": "1"
      },
      "t_mapping(t_address,t_enum(Status)1119)": {
        "encoding": "mapping",
        "key": "t_address",
        "label": "mapping(address => enum AssociationFactory.Status)",
        "numberOfBytes": "32",
        "value": "t_enum(Status)1119"
      },
      "t_uint256": {
        "encoding": "inplace",
        "label": "uint256",
        "numberOfBytes": "32"
      }
    }
  }
}