{
  "address": "0xe7f1725E7734CE288F8367e1Bb143E90bb3F0512",
  "abi": [
    {
      "inputs": [
        {
          "internalType": "string",
          "name": "_name",
          "type": "string"
        },
        {
          "internalType": "string",
          "name": "_description",
          "type": "string"
        },
        {
          "internalType": "string",
          "name": "_email",
          "type": "string"
        },
        {
          "internalType": "string",
          "name": "_phoneNumber",
          "type": "string"
        },
        {
          "internalType": "string",
          "name": "_country",
          "type": "string"
        },
        {
          "internalType": "string",
          "name": "_streetAddress",
          "type": "string"
        },
        {
          "internalType": "string",
          "name": "_city",
          "type": "string"
        },
        {
          "internalType": "string",
          "name": "_state",
          "type": "string"
        },
        {
          "internalType": "string",
          "name": "_postalCode",
          "type": "string"
        },
        {
          "internalType": "uint256",
          "name": "_creationDate",
          "type": "uint256"
        },
        {
          "internalType": "uint256",
          "name": "_size",
          "type": "uint256"
        },
        {
          "internalType": "string",
          "name": "_domain",
          "type": "string"
        }
      ],
      "name": "addDemand",
      "outputs": [],
      "stateMutability": "nonpayable",
      "type": "function"
    },
    {
      "inputs": [
        {
          "internalType": "uint256",
          "name": "",
          "type": "uint256"
        }
      ],
      "name": "demands",
      "outputs": [
        {
          "components": [
            {
              "internalType": "string",
              "name": "name",
              "type": "string"
            },
            {
              "internalType": "string",
              "name": "description",
              "type": "string"
            },
            {
              "internalType": "string",
              "name": "email",
              "type": "string"
            },
            {
              "internalType": "string",
              "name": "phoneNumber",
              "type": "string"
            },
            {
              "internalType": "string",
              "name": "country",
              "type": "string"
            },
            {
              "internalType": "string",
              "name": "streetAddress",
              "type": "string"
            },
            {
              "internalType": "string",
              "name": "city",
              "type": "string"
            },
            {
              "internalType": "string",
              "name": "state",
              "type": "string"
            },
            {
              "internalType": "string",
              "name": "postalCode",
              "type": "string"
            },
            {
              "internalType": "uint256",
              "name": "creationDate",
              "type": "uint256"
            },
            {
              "internalType": "uint256",
              "name": "size",
              "type": "uint256"
            },
            {
              "internalType": "string",
              "name": "domain",
              "type": "string"
            }
          ],
          "internalType": "struct Demand.Association",
          "name": "association",
          "type": "tuple"
        },
        {
          "internalType": "address",
          "name": "owner",
          "type": "address"
        },
        {
          "internalType": "enum Demand.Status",
          "name": "status",
          "type": "uint8"
        }
      ],
      "stateMutability": "view",
      "type": "function"
    },
    {
      "inputs": [],
      "name": "getAllDemands",
      "outputs": [
        {
          "components": [
            {
              "components": [
                {
                  "internalType": "string",
                  "name": "name",
                  "type": "string"
                },
                {
                  "internalType": "string",
                  "name": "description",
                  "type": "string"
                },
                {
                  "internalType": "string",
                  "name": "email",
                  "type": "string"
                },
                {
                  "internalType": "string",
                  "name": "phoneNumber",
                  "type": "string"
                },
                {
                  "internalType": "string",
                  "name": "country",
                  "type": "string"
                },
                {
                  "internalType": "string",
                  "name": "streetAddress",
                  "type": "string"
                },
                {
                  "internalType": "string",
                  "name": "city",
                  "type": "string"
                },
                {
                  "internalType": "string",
                  "name": "state",
                  "type": "string"
                },
                {
                  "internalType": "string",
                  "name": "postalCode",
                  "type": "string"
                },
                {
                  "internalType": "uint256",
                  "name": "creationDate",
                  "type": "uint256"
                },
                {
                  "internalType": "uint256",
                  "name": "size",
                  "type": "uint256"
                },
                {
                  "internalType": "string",
                  "name": "domain",
                  "type": "string"
                }
              ],
              "internalType": "struct Demand.Association",
              "name": "association",
              "type": "tuple"
            },
            {
              "internalType": "address",
              "name": "owner",
              "type": "address"
            },
            {
              "internalType": "enum Demand.Status",
              "name": "status",
              "type": "uint8"
            }
          ],
          "internalType": "struct Demand.Demand[]",
          "name": "",
          "type": "tuple[]"
        }
      ],
      "stateMutability": "view",
      "type": "function"
    }
  ],
  "transactionHash": "0xfd09925ffddbb308a74e631c0bcf2e58adadab68c553b5aef4aafefb96726283",
  "args": [],
  "numDeployments": 1,
  "solcInputHash": "85502ea61ce269a9e58b417e8de18608",
  "bytecode": "0x6080806040523461001657611392908161001c8239f35b600080fdfe608080604052600436101561001357600080fd5b60003560e01c9081636541a69c14610e6157508063940c62a8146100b95763f62de8281461004057600080fd5b346100b45760203660031901126100b4576004356000548110156100b45761006a6100909161117f565b50600c61007682611290565b9101546100b0604051938493606085526060850190610fd5565b6001600160a01b038316602085015291604084019060a01c60ff166110c4565b0390f35b600080fd5b346100b4576101803660031901126100b4576004356001600160401b0381116100b4576100ea903690600401611129565b6024356001600160401b0381116100b457610109903690600401611129565b6044356001600160401b0381116100b457610128903690600401611129565b6064356001600160401b0381116100b457610147903690600401611129565b6084356001600160401b0381116100b457610166903690600401611129565b60a4356001600160401b0381116100b457610185903690600401611129565b60c4356001600160401b0381116100b4576101a4903690600401611129565b9160e4356001600160401b0381116100b4576101c4903690600401611129565b93610104356001600160401b0381116100b4576101e5903690600401611129565b95610164356001600160401b0381116100b457610206903690600401611129565b97604051996102148b6110ec565b8a5260208a015260408901526060880152608087015260a086015260c085015260e0840152610100830152610124356101208301526101443561014083015261016082015260405190610266826110d1565b815233602082015260006040820181905254600160401b81101561078a57806001610294920160005561117f565b610e4b57815180519283516001600160401b03811161078a576102b784546111b0565b601f8111610e07575b50602094601f8211600114610da157948192939495600092610d96575b50508160011b916000199060031b1c19161783555b60208201519283516001600160401b03811161078a5761031560018301546111b0565b601f8111610d4f575b50602094601f8211600114610ce357948192939495600092610cd8575b50508160011b916000199060031b1c19161760018201555b60408301519283516001600160401b03811161078a5761037660028401546111b0565b601f8111610c91575b50602094601f8211600114610c2557948192939495600092610c1a575b50508160011b916000199060031b1c19161760028301555b60608101519283516001600160401b03811161078a576103d760038501546111b0565b601f8111610bd3575b50602094601f8211600114610b6757948192939495600092610b5c575b50508160011b916000199060031b1c19161760038401555b60808201519283516001600160401b03811161078a5761043860048301546111b0565b601f8111610b15575b50602094601f8211600114610aa957948192939495600092610a9e575b50508160011b916000199060031b1c19161760048201555b60a08301519283516001600160401b03811161078a5761049960058401546111b0565b601f8111610a57575b50602094601f82116001146109eb579481929394956000926109e0575b50508160011b916000199060031b1c19161760058301555b60c08101519283516001600160401b03811161078a576104fa60068501546111b0565b601f8111610999575b50602094601f821160011461092d57948192939495600092610922575b50508160011b916000199060031b1c19161760068401555b60e08201519283516001600160401b03811161078a5761055b60078301546111b0565b601f81116108db575b50602094601f821160011461086f57948192939495600092610864575b50508160011b916000199060031b1c19161760078201555b6101008301519283516001600160401b03811161078a576105bd60088401546111b0565b601f811161081d575b506020601f82116001146107ab5781906101609495966000926107a0575b50508160011b916000199060031b1c19161760088401555b6101208101516009840155610140810151600a84015501518051906001600160401b03821161078a57610632600b8401546111b0565b601f811161073f575b50602090601f83116001146106ce57600c939291600091836106c3575b50508160011b916000199060031b1c191617600b8201555b019060018060a01b036020820151166040835492015160028110156106ad576001600160a81b03199092161760a09190911b60ff60a01b16179055005b634e487b7160e01b600052602160045260246000fd5b015190508580610658565b90601f19831691600b850160005260206000209260005b8181106107275750916001939185600c9796941061070e575b505050811b01600b820155610670565b015160001960f88460031b161c191690558580806106fe565b929360206001819287860151815501950193016106e5565b600b84016000526020600020601f840160051c81019160208510610780575b601f0160051c01905b818110610774575061063b565b60008155600101610767565b909150819061075e565b634e487b7160e01b600052604160045260246000fd5b0151905086806105e4565b601f198216956008850160005260206000209660005b818110610805575091610160959697918460019594106107ec575b505050811b0160088401556105fc565b015160001960f88460031b161c191690558680806107dc565b838301518955600190980197602093840193016107c1565b600884016000526020600020601f830160051c81016020841061085d575b601f830160051c820181106108515750506105c6565b6000815560010161083b565b508061083b565b015190508580610581565b601f198216956007840160005260206000209160005b8881106108c3575083600195969798106108aa575b505050811b016007820155610599565b015160001960f88460031b161c1916905585808061089a565b91926020600181928685015181550194019201610885565b600783016000526020600020601f830160051c81016020841061091b575b601f830160051c8201811061090f575050610564565b600081556001016108f9565b50806108f9565b015190508580610520565b601f198216956006860160005260206000209160005b88811061098157508360019596979810610968575b505050811b016006840155610538565b015160001960f88460031b161c19169055858080610958565b91926020600181928685015181550194019201610943565b600685016000526020600020601f830160051c8101602084106109d9575b601f830160051c820181106109cd575050610503565b600081556001016109b7565b50806109b7565b0151905085806104bf565b601f198216956005850160005260206000209160005b888110610a3f57508360019596979810610a26575b505050811b0160058301556104d7565b015160001960f88460031b161c19169055858080610a16565b91926020600181928685015181550194019201610a01565b600584016000526020600020601f830160051c810160208410610a97575b601f830160051c82018110610a8b5750506104a2565b60008155600101610a75565b5080610a75565b01519050858061045e565b601f198216956004840160005260206000209160005b888110610afd57508360019596979810610ae4575b505050811b016004820155610476565b015160001960f88460031b161c19169055858080610ad4565b91926020600181928685015181550194019201610abf565b600483016000526020600020601f830160051c810160208410610b55575b601f830160051c82018110610b49575050610441565b60008155600101610b33565b5080610b33565b0151905085806103fd565b601f198216956003860160005260206000209160005b888110610bbb57508360019596979810610ba2575b505050811b016003840155610415565b015160001960f88460031b161c19169055858080610b92565b91926020600181928685015181550194019201610b7d565b600385016000526020600020601f830160051c810160208410610c13575b601f830160051c82018110610c075750506103e0565b60008155600101610bf1565b5080610bf1565b01519050858061039c565b601f198216956002850160005260206000209160005b888110610c7957508360019596979810610c60575b505050811b0160028301556103b4565b015160001960f88460031b161c19169055858080610c50565b91926020600181928685015181550194019201610c3b565b600284016000526020600020601f830160051c810160208410610cd1575b601f830160051c82018110610cc557505061037f565b60008155600101610caf565b5080610caf565b01519050858061033b565b601f198216956001840160005260206000209160005b888110610d3757508360019596979810610d1e575b505050811b016001820155610353565b015160001960f88460031b161c19169055858080610d0e565b91926020600181928685015181550194019201610cf9565b600183016000526020600020601f830160051c810160208410610d8f575b601f830160051c82018110610d8357505061031e565b60008155600101610d6d565b5080610d6d565b0151905085806102dd565b601f198216958560005260206000209160005b888110610def57508360019596979810610dd6575b505050811b0183556102f2565b015160001960f88460031b161c19169055858080610dc9565b91926020600181928685015181550194019201610db4565b846000526020600020601f830160051c810160208410610e44575b601f830160051c82018110610e385750506102c0565b60008155600101610e22565b5080610e22565b634e487b7160e01b600052600060045260246000fd5b346100b45760003660031901126100b457600054906001600160401b03821161078a5790602090610e97828260051b0184611108565b80835260008080528281208385019291835b838210610f3b5750505050604051918083019381845251809452604083019360408160051b85010192916000955b828710610ee45785850386f35b909192938280600192603f19898203018552610f2b885191604080610f1185516060808652850190610fd5565b94888060a01b0387820151168785015201519101906110c4565b9601920196019592919092610ed7565b604096959651610f4a816110d1565b610f5384611290565b8152600c8401546001600160a01b0381168983015260a01c60ff1660028110156106ad57600192828a926040600d950152815201930191019091959495610ea9565b919082519283825260005b848110610fc1575050826000602080949584010152601f8019910116010190565b602081830181015184830182015201610fa0565b906110c19161109761108361107161105f61104d61103b6110296110176110058951610180808d528c0190610f95565b60208a01518b820360208d0152610f95565b60408901518a820360408c0152610f95565b606088015189820360608b0152610f95565b608087015188820360808a0152610f95565b60a086015187820360a0890152610f95565b60c085015186820360c0880152610f95565b60e084015185820360e0870152610f95565b610100808401519085830390860152610f95565b91610120808301519082015261014080830151908201526101608092015191818403910152610f95565b90565b9060028210156106ad5752565b606081019081106001600160401b0382111761078a57604052565b61018081019081106001600160401b0382111761078a57604052565b90601f801991011681019081106001600160401b0382111761078a57604052565b81601f820112156100b4578035906001600160401b03821161078a576040519261115d601f8401601f191660200185611108565b828452602083830101116100b457816000926020809301838601378301015290565b90600091825481101561119c57828052600d602084209102019190565b634e487b7160e01b83526032600452602483fd5b90600182811c921680156111e0575b60208310146111ca57565b634e487b7160e01b600052602260045260246000fd5b91607f16916111bf565b90604051918260008254926111fe846111b0565b90818452600194858116908160001461126d575060011461122a575b505061122892500383611108565b565b9093915060005260209081600020936000915b8183106112555750506112289350820101388061121a565b8554888401850152948501948794509183019161123d565b91505061122894506020925060ff191682840152151560051b820101388061121a565b9060405161129d816110ec565b610160611357600b83956112b0816111ea565b85526112be600182016111ea565b60208601526112cf600282016111ea565b60408601526112e0600382016111ea565b60608601526112f1600482016111ea565b6080860152611302600582016111ea565b60a0860152611313600682016111ea565b60c0860152611324600782016111ea565b60e0860152611335600882016111ea565b6101008601526009810154610120860152600a810154610140860152016111ea565b91015256fea2646970667358221220f66c229bf25d205dcbe36a5fa371a0dd210eba7aca77bb779ce64ed40933839064736f6c63430008140033",
  "devdoc": {
    "kind": "dev",
    "methods": {},
    "version": 1
  },
  "userdoc": {
    "kind": "user",
    "methods": {},
    "version": 1
  },
  "storageLayout": {
    "storage": [
      {
        "astId": 42,
        "contract": "src/services/blockchain/contracts/Association/Demand.sol:Demand",
        "label": "demands",
        "offset": 0,
        "slot": "0",
        "type": "t_array(t_struct(Demand)38_storage)dyn_storage"
      }
    ],
    "types": {
      "t_address": {
        "encoding": "inplace",
        "label": "address",
        "numberOfBytes": "20"
      },
      "t_array(t_struct(Demand)38_storage)dyn_storage": {
        "base": "t_struct(Demand)38_storage",
        "encoding": "dynamic_array",
        "label": "struct Demand.Demand[]",
        "numberOfBytes": "32"
      },
      "t_enum(Status)29": {
        "encoding": "inplace",
        "label": "enum Demand.Status",
        "numberOfBytes": "1"
      },
      "t_string_storage": {
        "encoding": "bytes",
        "label": "string",
        "numberOfBytes": "32"
      },
      "t_struct(Association)26_storage": {
        "encoding": "inplace",
        "label": "struct Demand.Association",
        "members": [
          {
            "astId": 3,
            "contract": "src/services/blockchain/contracts/Association/Demand.sol:Demand",
            "label": "name",
            "offset": 0,
            "slot": "0",
            "type": "t_string_storage"
          },
          {
            "astId": 5,
            "contract": "src/services/blockchain/contracts/Association/Demand.sol:Demand",
            "label": "description",
            "offset": 0,
            "slot": "1",
            "type": "t_string_storage"
          },
          {
            "astId": 7,
            "contract": "src/services/blockchain/contracts/Association/Demand.sol:Demand",
            "label": "email",
            "offset": 0,
            "slot": "2",
            "type": "t_string_storage"
          },
          {
            "astId": 9,
            "contract": "src/services/blockchain/contracts/Association/Demand.sol:Demand",
            "label": "phoneNumber",
            "offset": 0,
            "slot": "3",
            "type": "t_string_storage"
          },
          {
            "astId": 11,
            "contract": "src/services/blockchain/contracts/Association/Demand.sol:Demand",
            "label": "country",
            "offset": 0,
            "slot": "4",
            "type": "t_string_storage"
          },
          {
            "astId": 13,
            "contract": "src/services/blockchain/contracts/Association/Demand.sol:Demand",
            "label": "streetAddress",
            "offset": 0,
            "slot": "5",
            "type": "t_string_storage"
          },
          {
            "astId": 15,
            "contract": "src/services/blockchain/contracts/Association/Demand.sol:Demand",
            "label": "city",
            "offset": 0,
            "slot": "6",
            "type": "t_string_storage"
          },
          {
            "astId": 17,
            "contract": "src/services/blockchain/contracts/Association/Demand.sol:Demand",
            "label": "state",
            "offset": 0,
            "slot": "7",
            "type": "t_string_storage"
          },
          {
            "astId": 19,
            "contract": "src/services/blockchain/contracts/Association/Demand.sol:Demand",
            "label": "postalCode",
            "offset": 0,
            "slot": "8",
            "type": "t_string_storage"
          },
          {
            "astId": 21,
            "contract": "src/services/blockchain/contracts/Association/Demand.sol:Demand",
            "label": "creationDate",
            "offset": 0,
            "slot": "9",
            "type": "t_uint256"
          },
          {
            "astId": 23,
            "contract": "src/services/blockchain/contracts/Association/Demand.sol:Demand",
            "label": "size",
            "offset": 0,
            "slot": "10",
            "type": "t_uint256"
          },
          {
            "astId": 25,
            "contract": "src/services/blockchain/contracts/Association/Demand.sol:Demand",
            "label": "domain",
            "offset": 0,
            "slot": "11",
            "type": "t_string_storage"
          }
        ],
        "numberOfBytes": "384"
      },
      "t_struct(Demand)38_storage": {
        "encoding": "inplace",
        "label": "struct Demand.Demand",
        "members": [
          {
            "astId": 32,
            "contract": "src/services/blockchain/contracts/Association/Demand.sol:Demand",
            "label": "association",
            "offset": 0,
            "slot": "0",
            "type": "t_struct(Association)26_storage"
          },
          {
            "astId": 34,
            "contract": "src/services/blockchain/contracts/Association/Demand.sol:Demand",
            "label": "owner",
            "offset": 0,
            "slot": "12",
            "type": "t_address"
          },
          {
            "astId": 37,
            "contract": "src/services/blockchain/contracts/Association/Demand.sol:Demand",
            "label": "status",
            "offset": 20,
            "slot": "12",
            "type": "t_enum(Status)29"
          }
        ],
        "numberOfBytes": "416"
      },
      "t_uint256": {
        "encoding": "inplace",
        "label": "uint256",
        "numberOfBytes": "32"
      }
    }
  }
}