{
  "address": "0xa513E6E4b8f2a923D98304ec87F64353C4D5C853",
  "abi": [
    {
      "inputs": [],
      "stateMutability": "nonpayable",
      "type": "constructor"
    },
    {
      "inputs": [
        {
          "internalType": "uint256",
          "name": "_index",
          "type": "uint256"
        }
      ],
      "name": "acceptDemand",
      "outputs": [],
      "stateMutability": "nonpayable",
      "type": "function"
    },
    {
      "inputs": [
        {
          "internalType": "address",
          "name": "_admin",
          "type": "address"
        }
      ],
      "name": "addAdmin",
      "outputs": [],
      "stateMutability": "nonpayable",
      "type": "function"
    },
    {
      "inputs": [
        {
          "internalType": "string",
          "name": "_name",
          "type": "string"
        },
        {
          "internalType": "string",
          "name": "_description",
          "type": "string"
        },
        {
          "internalType": "string",
          "name": "_email",
          "type": "string"
        },
        {
          "internalType": "string",
          "name": "_phoneNumber",
          "type": "string"
        },
        {
          "internalType": "string",
          "name": "_country",
          "type": "string"
        },
        {
          "internalType": "string",
          "name": "_streetAddress",
          "type": "string"
        },
        {
          "internalType": "string",
          "name": "_city",
          "type": "string"
        },
        {
          "internalType": "string",
          "name": "_state",
          "type": "string"
        },
        {
          "internalType": "string",
          "name": "_postalCode",
          "type": "string"
        },
        {
          "internalType": "uint256",
          "name": "_creationDate",
          "type": "uint256"
        },
        {
          "internalType": "uint256",
          "name": "_size",
          "type": "uint256"
        },
        {
          "internalType": "string",
          "name": "_domain",
          "type": "string"
        }
      ],
      "name": "addDemand",
      "outputs": [],
      "stateMutability": "nonpayable",
      "type": "function"
    },
    {
      "inputs": [
        {
          "internalType": "uint256",
          "name": "",
          "type": "uint256"
        }
      ],
      "name": "admins",
      "outputs": [
        {
          "internalType": "address",
          "name": "",
          "type": "address"
        }
      ],
      "stateMutability": "view",
      "type": "function"
    },
    {
      "inputs": [
        {
          "internalType": "address",
          "name": "_associationAddress",
          "type": "address"
        },
        {
          "internalType": "enum AssociationFactory.Status",
          "name": "_status",
          "type": "uint8"
        }
      ],
      "name": "changeAssociationStatus",
      "outputs": [],
      "stateMutability": "nonpayable",
      "type": "function"
    },
    {
      "inputs": [
        {
          "internalType": "uint256",
          "name": "",
          "type": "uint256"
        }
      ],
      "name": "demands",
      "outputs": [
        {
          "components": [
            {
              "internalType": "string",
              "name": "name",
              "type": "string"
            },
            {
              "internalType": "string",
              "name": "description",
              "type": "string"
            },
            {
              "internalType": "string",
              "name": "email",
              "type": "string"
            },
            {
              "internalType": "string",
              "name": "phoneNumber",
              "type": "string"
            },
            {
              "internalType": "string",
              "name": "country",
              "type": "string"
            },
            {
              "internalType": "string",
              "name": "streetAddress",
              "type": "string"
            },
            {
              "internalType": "string",
              "name": "city",
              "type": "string"
            },
            {
              "internalType": "string",
              "name": "state",
              "type": "string"
            },
            {
              "internalType": "string",
              "name": "postalCode",
              "type": "string"
            },
            {
              "internalType": "uint256",
              "name": "creationDate",
              "type": "uint256"
            },
            {
              "internalType": "uint256",
              "name": "size",
              "type": "uint256"
            },
            {
              "internalType": "string",
              "name": "domain",
              "type": "string"
            }
          ],
          "internalType": "struct PlateformContract.Association",
          "name": "association",
          "type": "tuple"
        },
        {
          "internalType": "address",
          "name": "owner",
          "type": "address"
        },
        {
          "internalType": "enum PlateformContract.Status",
          "name": "status",
          "type": "uint8"
        }
      ],
      "stateMutability": "view",
      "type": "function"
    },
    {
      "inputs": [],
      "name": "getAllDemands",
      "outputs": [
        {
          "components": [
            {
              "components": [
                {
                  "internalType": "string",
                  "name": "name",
                  "type": "string"
                },
                {
                  "internalType": "string",
                  "name": "description",
                  "type": "string"
                },
                {
                  "internalType": "string",
                  "name": "email",
                  "type": "string"
                },
                {
                  "internalType": "string",
                  "name": "phoneNumber",
                  "type": "string"
                },
                {
                  "internalType": "string",
                  "name": "country",
                  "type": "string"
                },
                {
                  "internalType": "string",
                  "name": "streetAddress",
                  "type": "string"
                },
                {
                  "internalType": "string",
                  "name": "city",
                  "type": "string"
                },
                {
                  "internalType": "string",
                  "name": "state",
                  "type": "string"
                },
                {
                  "internalType": "string",
                  "name": "postalCode",
                  "type": "string"
                },
                {
                  "internalType": "uint256",
                  "name": "creationDate",
                  "type": "uint256"
                },
                {
                  "internalType": "uint256",
                  "name": "size",
                  "type": "uint256"
                },
                {
                  "internalType": "string",
                  "name": "domain",
                  "type": "string"
                }
              ],
              "internalType": "struct PlateformContract.Association",
              "name": "association",
              "type": "tuple"
            },
            {
              "internalType": "address",
              "name": "owner",
              "type": "address"
            },
            {
              "internalType": "enum PlateformContract.Status",
              "name": "status",
              "type": "uint8"
            }
          ],
          "internalType": "struct PlateformContract.Demand[]",
          "name": "",
          "type": "tuple[]"
        }
      ],
      "stateMutability": "view",
      "type": "function"
    },
    {
      "inputs": [],
      "name": "getAssociationFactory",
      "outputs": [
        {
          "internalType": "address",
          "name": "",
          "type": "address"
        }
      ],
      "stateMutability": "view",
      "type": "function"
    },
    {
      "inputs": [
        {
          "internalType": "uint256",
          "name": "_index",
          "type": "uint256"
        }
      ],
      "name": "refuseDemand",
      "outputs": [],
      "stateMutability": "nonpayable",
      "type": "function"
    },
    {
      "inputs": [
        {
          "internalType": "address",
          "name": "_associationFactory",
          "type": "address"
        }
      ],
      "name": "setAssociationFactory",
      "outputs": [],
      "stateMutability": "nonpayable",
      "type": "function"
    }
  ],
  "transactionHash": "0xcf35b9afa0d05d5ce2ca25f1950293d0b83f2a4947c5bd0311a6c5a056574a1b",
  "args": [],
  "numDeployments": 2,
  "solcInputHash": "697be7d26e07475fdee2f3120f225e58",
  "bytecode": "0x6080806040523461009c57600154680100000000000000008110156100865760018101806001558110156100705760016000527fb10e2d527612073b26eecdfd717e6a320cf44b4afac2b0732d9fcbe2b7fa0cf60180546001600160a01b03191633179055611ba890816100a28239f35b634e487b7160e01b600052603260045260246000fd5b634e487b7160e01b600052604160045260246000fd5b600080fdfe6080604052600436101561001257600080fd5b6000803560e01c80630eb1f83e1461106057806314bfd6d01461101c578063337ef37514610f825780633f57716c14610e90578063419c0d4914610e675780636541a69c14610d555780637048027514610c95578063940c62a814610192578063b4ef33a1146101045763f62de8281461008b57600080fd5b3461010157602036600319011261010157600435908054821015610101576100df6100b58361172f565b50600c6100c182611840565b91015460ff8160a01c1660405193849360608552606085019061155c565b6001600160a01b0390921660208401526100f88161164b565b60408301520390f35b80fd5b50346101015760203660031901126101015780819060018054925b838110610154575b8461013184611974565b600c61013e60043561172f565b5001805460ff60a01b1916600160a01b17905580f35b61015d816114d0565b905460039190911b1c6001600160a01b031633146101835761017e9061194f565b61011f565b50905061013191503880610127565b503461010157610180366003190112610101576004356001600160401b038111610c91576101c49036906004016116d9565b6024356001600160401b038111610c8d576101e39036906004016116d9565b6044356001600160401b038111610c89576102029036906004016116d9565b6064356001600160401b038111610c85576102219036906004016116d9565b6084356001600160401b038111610c81576102409036906004016116d9565b60a4356001600160401b038111610c7d5761025f9036906004016116d9565b60c4356001600160401b038111610c795761027e9036906004016116d9565b9160e4356001600160401b038111610c755761029e9036906004016116d9565b93610104356001600160401b038111610c71576102bf9036906004016116d9565b95610164356001600160401b038111610c6d576102e09036906004016116d9565b97604051996102ee8b61166b565b8a5260208a015260408901526060880152608087015260a086015260c085015260e08401526101008301526101243561012083015261014435610140830152610160820152604051906103408261169d565b8152336020820152604081018290528154600160401b811015610c595780600161036c9201845561172f565b610c4557815180518051906001600160401b0382116107ed57819061039b826103958754611760565b87611a06565b602090601f8311600114610bdc578792610bd1575b50508160011b916000199060031b1c19161782555b60208101518051906001600160401b0382116107ed5781906103f7826103ee6001880154611760565b60018801611a06565b602090601f8311600114610b62578792610b57575b50508160011b916000199060031b1c19161760018301555b60408101518051906001600160401b0382116107ed5781906104568261044d6002880154611760565b60028801611a06565b602090601f8311600114610ae8578792610add575b50508160011b916000199060031b1c19161760028301555b60608101518051906001600160401b0382116107ed5781906104b5826104ac6003880154611760565b60038801611a06565b602090601f8311600114610a6e578792610a63575b50508160011b916000199060031b1c19161760038301555b60808101518051906001600160401b0382116107ed5781906105148261050b6004880154611760565b60048801611a06565b602090601f83116001146109f45787926109e9575b50508160011b916000199060031b1c19161760048301555b60a08101518051906001600160401b0382116107ed5781906105738261056a6005880154611760565b60058801611a06565b602090601f831160011461097a57879261096f575b50508160011b916000199060031b1c19161760058301555b60c08101518051906001600160401b0382116107ed5781906105d2826105c96006880154611760565b60068801611a06565b602090601f83116001146109005787926108f5575b50508160011b916000199060031b1c19161760068301555b60e08101518051906001600160401b0382116107ed578190610631826106286007880154611760565b60078801611a06565b602090601f831160011461088657879261087b575b50508160011b916000199060031b1c19161760078301555b6101008101518051906001600160401b0382116107ed578190610691826106886008880154611760565b60088801611a06565b602090601f831160011461080c578792610801575b50508160011b916000199060031b1c19161760088301555b6101208101516009830155610140810151600a83015561016001518051600b8301916001600160401b0382116107ed57610702826106fc8554611760565b85611a06565b602090601f831160011461077f579282600c936107719796936040968a92610774575b50508160011b916000199060031b1c19161790555b6020840151910180546001600160a01b0319166001600160a01b03929092169190911781559101519061076c8261164b565b6119cb565b80f35b015190503880610725565b838752602087209190601f198416885b8181106107d55750936107719796936040969360019383600c98106107bc575b505050811b01905561073a565b015160001960f88460031b161c191690553880806107af565b9293602060018192878601518155019501930161078f565b634e487b7160e01b86526041600452602486fd5b0151905038806106a6565b9250600885018752602087209087935b601f1984168510610860576001945083601f19811610610847575b505050811b0160088301556106be565b015160001960f88460031b161c19169055388080610837565b8181015183556020948501946001909301929091019061081c565b015190503880610646565b9250600785018752602087209087935b601f19841685106108da576001945083601f198116106108c1575b505050811b01600783015561065e565b015160001960f88460031b161c191690553880806108b1565b81810151835560209485019460019093019290910190610896565b0151905038806105e7565b9250600685018752602087209087935b601f1984168510610954576001945083601f1981161061093b575b505050811b0160068301556105ff565b015160001960f88460031b161c1916905538808061092b565b81810151835560209485019460019093019290910190610910565b015190503880610588565b9250600585018752602087209087935b601f19841685106109ce576001945083601f198116106109b5575b505050811b0160058301556105a0565b015160001960f88460031b161c191690553880806109a5565b8181015183556020948501946001909301929091019061098a565b015190503880610529565b9250600485018752602087209087935b601f1984168510610a48576001945083601f19811610610a2f575b505050811b016004830155610541565b015160001960f88460031b161c19169055388080610a1f565b81810151835560209485019460019093019290910190610a04565b0151905038806104ca565b9250600385018752602087209087935b601f1984168510610ac2576001945083601f19811610610aa9575b505050811b0160038301556104e2565b015160001960f88460031b161c19169055388080610a99565b81810151835560209485019460019093019290910190610a7e565b01519050388061046b565b9250600285018752602087209087935b601f1984168510610b3c576001945083601f19811610610b23575b505050811b016002830155610483565b015160001960f88460031b161c19169055388080610b13565b81810151835560209485019460019093019290910190610af8565b01519050388061040c565b9250600185018752602087209087935b601f1984168510610bb6576001945083601f19811610610b9d575b505050811b016001830155610424565b015160001960f88460031b161c19169055388080610b8d565b81810151835560209485019460019093019290910190610b72565b0151905038806103b0565b9250848752602087209087935b601f1984168510610c2a576001945083601f19811610610c11575b505050811b0182556103c5565b015160001960f88460031b161c19169055388080610c04565b81810151835560209485019460019093019290910190610be9565b634e487b7160e01b83526004839052602483fd5b634e487b7160e01b83526041600452602483fd5b8a80fd5b8980fd5b8880fd5b8780fd5b8680fd5b8580fd5b8480fd5b8380fd5b8280fd5b5080fd5b503461010157602036600319011261010157610caf611501565b81908260018054915b828110610d1a575b50909192610ccd90611974565b600160401b821015610d06578181019055610ce7906114d0565b819291549060031b9160018060a01b03809116831b921b191617905580f35b634e487b7160e01b84526041600452602484fd5b610d23816114d0565b905460039190911b1c6001600160a01b03163314610d4957610d449061194f565b610cb8565b50925082610ccd610cc0565b503461010157806003193601126101015780546001600160401b038111610e535760405190602092610d8c848360051b01846116b8565b818352838301918282805285832083915b838310610e2e5750505050604051928484019085855251809152604084019460408260051b8601019392955b828710610dd65785850386f35b909192938280600192603f19898203018552875190604080610e008451606080865285019061155c565b93878060a01b03868201511686850152015191610e1c8361164b565b01529601920196019592919092610dc9565b600d88600192610e41859b9a989b61190c565b81520192019201919096939596610d9d565b634e487b7160e01b82526041600452602482fd5b50346101015780600319360112610101576002546040516001600160a01b039091168152602090f35b503461010157604036600319011261010157610eaa611501565b81602435916002831015610c9157818260018054915b828110610f44575b505050610ed490611974565b6002546001600160a01b039190821690813b15610c8957836044926040519687958694630fd5dc5b60e21b8652166004850152610f108161164b565b60248401525af18015610f3957610f25575080f35b6001600160401b038111610e535760405280f35b6040513d84823e3d90fd5b610f4d816114d0565b905460039190911b1c6001600160a01b03163314610f7357610f6e9061194f565b610ec0565b509150610ed490503880610ec8565b503461010157602036600319011261010157610f9c611501565b8190829160018054935b848110610fdc575b8584610fb985611974565b600280546001600160a01b0319166001600160a01b039290921691909117905580f35b610fe5816114d0565b905460039190911b1c6001600160a01b0316331461100b576110069061194f565b610fa6565b509050610fb9919250829138610fae565b50346101015760203660031901126101015760043590600154821015610101576020611047836114d0565b905460405160039290921b1c6001600160a01b03168152f35b50346101015760203660031901126101015760018054906004359083805b848110611491575b5061109391929350611974565b82548083101561144c576110af6110a98461172f565b5061190c565b9260001991808301908111611438576110ca6110d19161172f565b509161172f565b919091611424578082141580611336575b505050835480156113225701906110f88261172f565b91909161130e5790849161110b82611b29565b810161111690611b29565b61112260028201611b29565b61112e60038201611b29565b61113a60048201611b29565b61114660058201611b29565b61115260068201611b29565b61115e60078201611b29565b61116a60088201611b29565b81600982015581600a820155600b810161118390611b29565b600c0155825551600160a01b6001900390816002541681516020830151906040840151936060810151608082015160a083015160c084015160e08501519161010086015193610120870151966101400151956040519b8c9a8b9a637bef4a6960e11b8c5260048c0161016090526101648c016111fe9161151c565b8b81036003190160248d01526112139161151c565b8a81036003190160448c01526112289161151c565b8981036003190160648b015261123d9161151c565b8881036003190160848a01526112529161151c565b8781036003190160a48901526112679161151c565b8681036003190160c488015261127c9161151c565b8581036003190160e48701526112919161151c565b848103600319016101048601526112a79161151c565b916101248401526101448301520381865a94602095f18015611303576112cb578280f35b6020813d6020116112fb575b816112e4602093836116b8565b81010312610c8d5751908116036101015738808280f35b3d91506112d7565b6040513d85823e3d90fd5b634e487b7160e01b85526004859052602485fd5b634e487b7160e01b85526031600452602485fd5b600c8061136b9460ff93611373575b01920160018060a01b0381541660018060a01b03198454161783555460a01c16906119cb565b3880806110e2565b61137d8582611a4b565b61138b888601898301611a4b565b61139b6002860160028301611a4b565b6113ab6003860160038301611a4b565b6113bb6004860160048301611a4b565b6113cb6005860160058301611a4b565b6113db6006860160068301611a4b565b6113eb6007860160078301611a4b565b6113fb6008860160088301611a4b565b60098501546009820155600a850154600a82015561141f600b8601600b8301611a4b565b611345565b634e487b7160e01b86526004869052602486fd5b634e487b7160e01b86526011600452602486fd5b60405162461bcd60e51b815260206004820152601a60248201527f44656d616e6420696e646578206f7574206f6620626f756e64730000000000006044820152606490fd5b61149a816114d0565b905460039190911b1c6001600160a01b031633146114c0576114bb9061194f565b61107e565b5091925082915080611093611086565b6001548110156114eb57600160005260206000200190600090565b634e487b7160e01b600052603260045260246000fd5b600435906001600160a01b038216820361151757565b600080fd5b919082519283825260005b848110611548575050826000602080949584010152601f8019910116010190565b602081830181015184830182015201611527565b906116489161161e61160a6115f86115e66115d46115c26115b061159e61158c8951610180808d528c019061151c565b60208a01518b820360208d015261151c565b60408901518a820360408c015261151c565b606088015189820360608b015261151c565b608087015188820360808a015261151c565b60a086015187820360a089015261151c565b60c085015186820360c088015261151c565b60e084015185820360e087015261151c565b61010080840151908583039086015261151c565b9161012080830151908201526101408083015190820152610160809201519181840391015261151c565b90565b6002111561165557565b634e487b7160e01b600052602160045260246000fd5b61018081019081106001600160401b0382111761168757604052565b634e487b7160e01b600052604160045260246000fd5b606081019081106001600160401b0382111761168757604052565b90601f801991011681019081106001600160401b0382111761168757604052565b81601f82011215611517578035906001600160401b038211611687576040519261170d601f8401601f1916602001856116b8565b8284526020838301011161151757816000926020809301838601378301015290565b90600091825481101561174c57828052600d602084209102019190565b634e487b7160e01b83526032600452602483fd5b90600182811c92168015611790575b602083101461177a57565b634e487b7160e01b600052602260045260246000fd5b91607f169161176f565b90604051918260008254926117ae84611760565b90818452600194858116908160001461181d57506001146117da575b50506117d8925003836116b8565b565b9093915060005260209081600020936000915b8183106118055750506117d8935082010138806117ca565b855488840185015294850194879450918301916117ed565b9150506117d894506020925060ff191682840152151560051b82010138806117ca565b9060405161184d8161166b565b610160611907600b83956118608161179a565b855261186e6001820161179a565b602086015261187f6002820161179a565b60408601526118906003820161179a565b60608601526118a16004820161179a565b60808601526118b26005820161179a565b60a08601526118c36006820161179a565b60c08601526118d46007820161179a565b60e08601526118e56008820161179a565b6101008601526009810154610120860152600a8101546101408601520161179a565b910152565b906040516119198161169d565b604060ff600c839561192a81611840565b855201546001600160a01b038116602085015260a01c169161194b8361164b565b0152565b600019811461195e5760010190565b634e487b7160e01b600052601160045260246000fd5b1561197b57565b60405162461bcd60e51b815260206004820152602260248201527f4f6e6c792061646d696e732063616e2063616c6c20746869732066756e63746960448201526137b760f11b6064820152608490fd5b906119d58161164b565b815460ff60a01b191660a09190911b60ff60a01b16179055565b8181106119fa575050565b600081556001016119ef565b9190601f8111611a1557505050565b6117d8926000526020600020906020601f840160051c83019310611a41575b601f0160051c01906119ef565b9091508190611a34565b90808214611b2557611a5d8154611760565b906001600160401b038211611687578190611a8282611a7c8654611760565b86611a06565b600090601f8311600114611ab957600092611aae575b50508160011b916000199060031b1c1916179055565b015490503880611a98565b81526020808220858352818320935090601f1985169083905b828210611b0c575050908460019594939210611af3575b505050811b019055565b015460001960f88460031b161c19169055388080611ae9565b8495819295850154815560018091019601940190611ad2565b5050565b611b338154611760565b9081611b3d575050565b81601f60009311600114611b4f575055565b908083918252611b6e601f60208420940160051c8401600185016119ef565b555556fea2646970667358221220613ff69837d5957d413e3ebfdc1164721ebb50daf70b429f2701e221f0db32c564736f6c63430008140033",
  "devdoc": {
    "kind": "dev",
    "methods": {},
    "version": 1
  },
  "userdoc": {
    "kind": "user",
    "methods": {},
    "version": 1
  },
  "storageLayout": {
    "storage": [
      {
        "astId": 434,
        "contract": "src/services/blockchain/contracts/Plateform.sol:PlateformContract",
        "label": "demands",
        "offset": 0,
        "slot": "0",
        "type": "t_array(t_struct(Demand)430_storage)dyn_storage"
      },
      {
        "astId": 437,
        "contract": "src/services/blockchain/contracts/Plateform.sol:PlateformContract",
        "label": "admins",
        "offset": 0,
        "slot": "1",
        "type": "t_array(t_address)dyn_storage"
      },
      {
        "astId": 440,
        "contract": "src/services/blockchain/contracts/Plateform.sol:PlateformContract",
        "label": "associationFactory",
        "offset": 0,
        "slot": "2",
        "type": "t_contract(AssociationFactory)390"
      }
    ],
    "types": {
      "t_address": {
        "encoding": "inplace",
        "label": "address",
        "numberOfBytes": "20"
      },
      "t_array(t_address)dyn_storage": {
        "base": "t_address",
        "encoding": "dynamic_array",
        "label": "address[]",
        "numberOfBytes": "32"
      },
      "t_array(t_struct(Demand)430_storage)dyn_storage": {
        "base": "t_struct(Demand)430_storage",
        "encoding": "dynamic_array",
        "label": "struct PlateformContract.Demand[]",
        "numberOfBytes": "32"
      },
      "t_contract(AssociationFactory)390": {
        "encoding": "inplace",
        "label": "contract AssociationFactory",
        "numberOfBytes": "20"
      },
      "t_enum(Status)421": {
        "encoding": "inplace",
        "label": "enum PlateformContract.Status",
        "numberOfBytes": "1"
      },
      "t_string_storage": {
        "encoding": "bytes",
        "label": "string",
        "numberOfBytes": "32"
      },
      "t_struct(Association)418_storage": {
        "encoding": "inplace",
        "label": "struct PlateformContract.Association",
        "members": [
          {
            "astId": 395,
            "contract": "src/services/blockchain/contracts/Plateform.sol:PlateformContract",
            "label": "name",
            "offset": 0,
            "slot": "0",
            "type": "t_string_storage"
          },
          {
            "astId": 397,
            "contract": "src/services/blockchain/contracts/Plateform.sol:PlateformContract",
            "label": "description",
            "offset": 0,
            "slot": "1",
            "type": "t_string_storage"
          },
          {
            "astId": 399,
            "contract": "src/services/blockchain/contracts/Plateform.sol:PlateformContract",
            "label": "email",
            "offset": 0,
            "slot": "2",
            "type": "t_string_storage"
          },
          {
            "astId": 401,
            "contract": "src/services/blockchain/contracts/Plateform.sol:PlateformContract",
            "label": "phoneNumber",
            "offset": 0,
            "slot": "3",
            "type": "t_string_storage"
          },
          {
            "astId": 403,
            "contract": "src/services/blockchain/contracts/Plateform.sol:PlateformContract",
            "label": "country",
            "offset": 0,
            "slot": "4",
            "type": "t_string_storage"
          },
          {
            "astId": 405,
            "contract": "src/services/blockchain/contracts/Plateform.sol:PlateformContract",
            "label": "streetAddress",
            "offset": 0,
            "slot": "5",
            "type": "t_string_storage"
          },
          {
            "astId": 407,
            "contract": "src/services/blockchain/contracts/Plateform.sol:PlateformContract",
            "label": "city",
            "offset": 0,
            "slot": "6",
            "type": "t_string_storage"
          },
          {
            "astId": 409,
            "contract": "src/services/blockchain/contracts/Plateform.sol:PlateformContract",
            "label": "state",
            "offset": 0,
            "slot": "7",
            "type": "t_string_storage"
          },
          {
            "astId": 411,
            "contract": "src/services/blockchain/contracts/Plateform.sol:PlateformContract",
            "label": "postalCode",
            "offset": 0,
            "slot": "8",
            "type": "t_string_storage"
          },
          {
            "astId": 413,
            "contract": "src/services/blockchain/contracts/Plateform.sol:PlateformContract",
            "label": "creationDate",
            "offset": 0,
            "slot": "9",
            "type": "t_uint256"
          },
          {
            "astId": 415,
            "contract": "src/services/blockchain/contracts/Plateform.sol:PlateformContract",
            "label": "size",
            "offset": 0,
            "slot": "10",
            "type": "t_uint256"
          },
          {
            "astId": 417,
            "contract": "src/services/blockchain/contracts/Plateform.sol:PlateformContract",
            "label": "domain",
            "offset": 0,
            "slot": "11",
            "type": "t_string_storage"
          }
        ],
        "numberOfBytes": "384"
      },
      "t_struct(Demand)430_storage": {
        "encoding": "inplace",
        "label": "struct PlateformContract.Demand",
        "members": [
          {
            "astId": 424,
            "contract": "src/services/blockchain/contracts/Plateform.sol:PlateformContract",
            "label": "association",
            "offset": 0,
            "slot": "0",
            "type": "t_struct(Association)418_storage"
          },
          {
            "astId": 426,
            "contract": "src/services/blockchain/contracts/Plateform.sol:PlateformContract",
            "label": "owner",
            "offset": 0,
            "slot": "12",
            "type": "t_address"
          },
          {
            "astId": 429,
            "contract": "src/services/blockchain/contracts/Plateform.sol:PlateformContract",
            "label": "status",
            "offset": 20,
            "slot": "12",
            "type": "t_enum(Status)421"
          }
        ],
        "numberOfBytes": "416"
      },
      "t_uint256": {
        "encoding": "inplace",
        "label": "uint256",
        "numberOfBytes": "32"
      }
    }
  }
}