{
  "address": "0x2B402d93Dee29E1FC622B5DF6d89e7D5A926e09b",
  "abi": [
    {
      "inputs": [
        {
          "internalType": "address",
          "name": "_associationFactory",
          "type": "address"
        }
      ],
      "stateMutability": "nonpayable",
      "type": "constructor"
    },
    {
      "anonymous": false,
      "inputs": [
        {
          "indexed": false,
          "internalType": "address",
          "name": "campaignAddress",
          "type": "address"
        },
        {
          "indexed": false,
          "internalType": "address",
          "name": "tokenAddress",
          "type": "address"
        }
      ],
      "name": "CampaignCreated",
      "type": "event"
    },
    {
      "inputs": [],
      "name": "associationFactory",
      "outputs": [
        {
          "internalType": "contract AssociationFactory",
          "name": "",
          "type": "address"
        }
      ],
      "stateMutability": "view",
      "type": "function"
    },
    {
      "inputs": [
        {
          "internalType": "string",
          "name": "_name",
          "type": "string"
        },
        {
          "internalType": "string",
          "name": "_description",
          "type": "string"
        },
        {
          "internalType": "address",
          "name": "_targetUser",
          "type": "address"
        },
        {
          "internalType": "uint256",
          "name": "_targetAmount",
          "type": "uint256"
        },
        {
          "internalType": "uint256",
          "name": "_refundThreshold",
          "type": "uint256"
        },
        {
          "internalType": "uint256",
          "name": "_tokenSupply",
          "type": "uint256"
        },
        {
          "internalType": "string",
          "name": "_tokenName",
          "type": "string"
        },
        {
          "internalType": "string",
          "name": "_tokenSymbol",
          "type": "string"
        }
      ],
      "name": "createCampaign",
      "outputs": [],
      "stateMutability": "nonpayable",
      "type": "function"
    }
  ],
  "transactionHash": "0x06ae789658d44c322f67ab3b4c235e25790c6805341faf9fe7a6e297a10bcb1a",
  "args": [
    "0x3513Ecff5Cb63eeb03fF7b9Fa06555D61D5D31a2"
  ],
  "numDeployments": 1,
  "solcInputHash": "4161584f72dbbfe4292a8899dc63d75d",
  "bytecode": "0x60803461007457601f612d6138819003918201601f19168301916001600160401b038311848410176100795780849260209460405283398101031261007457516001600160a01b0381169081900361007457600080546001600160a01b031916919091179055604051612cd190816100908239f35b600080fd5b634e487b7160e01b600052604160045260246000fdfe6080604090808252600491823610156200001857600080fd5b600091823560e01c9081637a8c719514620003f5575063f4690f08146200003e57600080fd5b34620003f1576101009283600319360112620003ed576001600160401b03938135858111620003e95762000076903690840162000453565b906024958635818111620002c45762000093903690860162000453565b936001600160a01b036044358181169590869003620003e55760a4359660c435858111620003e157620000ca903690860162000453565b9560e435868111620003dd578b8b868f93620000ea9036908b0162000453565b92541681519384809263154a1ef160e01b8252338c8301525afa918215620003d3578d9081936200037c575b501562000339578b5190610c54808301908382108b83111762000326578392918f918f90620020488639815260209c8d820160609052606082016200015b91620004c1565b918183039101526200016d91620004c1565b03908df080156200031c57851698858d5416938c5195611b4494858801958887108c8811176200030857938f96938d620001cf91620001c18d968d9c9a9660e09a8e620005049039808a52890190620004c1565b9187830390880152620004c1565b96840152606435606084015260843560808401521660a08201528a60c08201520152039089f08015620002ba57169486519063a9059cbb60e01b825286838301528982015283816044818b895af18015620002ba57620002c8575b50833b15620002c457855163f2fde38b60e01b81528181018690529187838a8183895af18015620002ba576200028e575b5050507f6056366dba45431fd6a8854ad9f2594942b02c4f2c3f6fbc329b3079b027b8b49495508351928352820152a180f35b8297939711620002a857508452939450843880806200025b565b634e487b7160e01b8352604190528682fd5b87513d8a823e3d90fd5b8680fd5b8381813d831162000300575b620002e081836200041b565b81010312620002fc57620002f490620004b3565b50386200022a565b8780fd5b503d620002d4565b5050634e487b7160e01b8f52604189528f8ffd5b8b513d8e823e3d90fd5b50634e487b7160e01b8f52604189528f8ffd5b508a5162461bcd60e51b81526020818801819052818f01527f596f7520617265206e6f7420616e206173736f63696174696f6e2061646d696e6044820152606490fd5b8093508d8092503d8311620003cb575b6200039881836200041b565b81010312620003c7576020620003ae83620004b3565b920151918683168303620003c3573862000116565b8d80fd5b8c80fd5b503d6200038c565b8c513d8f823e3d90fd5b8b80fd5b8a80fd5b8880fd5b8480fd5b8280fd5b5080fd5b839034620003f15781600319360112620003f15790546001600160a01b03168152602090f35b90601f801991011681019081106001600160401b038211176200043d57604052565b634e487b7160e01b600052604160045260246000fd5b81601f82011215620004ae578035906001600160401b0382116200043d57604051926200048b601f8401601f1916602001856200041b565b82845260208383010111620004ae57816000926020809301838601378301015290565b600080fd5b51908115158203620004ae57565b919082519283825260005b848110620004ee575050826000602080949584010152601f8019910116010190565b602081830181015184830182015201620004cc56fe608060405234620004965762001b44803803806200001d81620004bb565b928339810161010082820312620004965781516001600160401b0381116200049657816200004d918401620004e1565b602083015190916001600160401b038211620004965762000070918401620004e1565b906200007f6040840162000553565b9260608101516080820151936200009960a0840162000553565b90620000b660e0620000ae60c0870162000553565b950162000553565b60786009819055600b819055600c55600f805460ff19166001179055855190956001600160401b0382116200038a5760005490600182811c921680156200048b575b6020831014620003695781601f84931162000428575b50602090601f8311600114620003ac57600092620003a0575b50508160011b916000199060031b1c1916176000555b8051906001600160401b0382116200038a5760015490600182811c921680156200037f575b6020831014620003695781601f84931162000305575b50602090601f83116001146200028b576000926200027f575b50508160011b916000199060031b1c1916176001555b60018060a01b039485928360018060a01b0319981688600254161760025560035560065516846008541617600855600f5490610100600160a81b039060081b1690610100600160a81b03191617600f5542600a55600160ff19600d541617600d551690601554161760155562000231620002206200049b565b600081526014602082015262000568565b620002506200023f6200049b565b60008152601e602082015262000568565b6200026f6200025e6200049b565b600081526032602082015262000568565b6040516115369081620005ce8239f35b01519050388062000191565b6001600090815260008051602062001b248339815191529350601f198516905b818110620002ec5750908460019594939210620002d2575b505050811b01600155620001a7565b015160001960f88460031b161c19169055388080620002c3565b92936020600181928786015181550195019301620002ab565b600160005290915060008051602062001b24833981519152601f840160051c810191602085106200035e575b90601f859493920160051c01905b8181106200034e575062000178565b600081558493506001016200033f565b909150819062000331565b634e487b7160e01b600052602260045260246000fd5b91607f169162000162565b634e487b7160e01b600052604160045260246000fd5b01519050388062000127565b6000808052935060008051602062001b0483398151915291905b601f19841685106200040c576001945083601f19811610620003f2575b505050811b016000556200013d565b015160001960f88460031b161c19169055388080620003e3565b81810151835560209485019460019093019290910190620003c6565b6000805290915060008051602062001b04833981519152601f840160051c8101916020851062000480575b90601f859493920160051c01905b8181106200047057506200010e565b6000815584935060010162000461565b909150819062000453565b91607f1691620000f8565b600080fd5b60408051919082016001600160401b038111838210176200038a57604052565b6040519190601f01601f191682016001600160401b038111838210176200038a57604052565b919080601f84011215620004965782516001600160401b0381116200038a5760209062000517601f8201601f19168301620004bb565b92818452828287010111620004965760005b8181106200053f57508260009394955001015290565b858101830151848201840152820162000529565b51906001600160a01b03821682036200049657565b601654680100000000000000008110156200038a576001810180601655811015620005b757602060019160166000528160002090831b01928051151560ff801986541691161784550151910155565b634e487b7160e01b600052603260045260246000fdfe608060408181526004918236101561001657600080fd5b600092833560e01c918263013cf08b146111e7575081630fb5a6b4146111c857816316fc4869146111a95781632129e25a1461118a57816324600fc314610e9d57816326c2596214610e555781632bc3d7aa14610e16578163373058b814610b705781633f3b3b2714610b51578163400e394914610b325781634945a8f214610b0e5781634a79d50c14610a6c5781634abfa16314610a2b578163671b379314610a0c5781637284e416146109245781638da5cb5b146108fb578163953b8fb8146108dc5781639d76ea58146108af578163a78b17cc14610890578163c255343e14610867578163cc6cb19a1461082d578163de2ed8931461080f578163e3ccb809146104c7578163ec752dcb146104a8578163ed88c68e1461019257508063f1ead2521461016f5763f38d00f01461014e57600080fd5b3461016b578160031936011261016b57602090600a549051908152f35b5080fd5b503461016b578160031936011261016b5760209060ff600d541690519015158152f35b83838160031936011261016b576101ae600a54600954906113b5565b421161047357341561041f576003549081156103cd57600f5481516318160ddd60e01b81526020936001600160a01b0360089390931c8316929185818981875afa9081156103c35791869188938491610389575b509061021161021692346113d8565b6113eb565b93604486518094819363a9059cbb60e01b8352338d8401528860248401525af1801561037f57610344575b50338552601084528285206102573482546113b5565b90553385526011845260ff8386205416156102bd575b507f4b0304ab2f313234b1cea012339c8f8c3bf2c8bb357d81a579cfdb35d2e3d03092939461029d3482546113b5565b90556102ab816005546113b5565b6005558151933485528401523392a280f35b601254600160401b81101561033157906103018260017f4b0304ab2f313234b1cea012339c8f8c3bf2c8bb357d81a579cfdb35d2e3d030979899940160125561139a565b819291549060031b9133831b921b191617905533865260118552828620600160ff1982541617905594939261026d565b634e487b7160e01b865260418752602486fd5b8481813d8311610378575b6103598183611330565b810103126103745751801515036103705786610241565b8480fd5b8580fd5b503d61034f565b84513d88823e3d90fd5b9350509082813d83116103bc575b6103a18183611330565b810103126103b757905186918691610211610202565b600080fd5b503d610397565b85513d89823e3d90fd5b5162461bcd60e51b8152602081850152602760248201527f54617267657420616d6f756e74206d7573742062652067726561746572207468604482015266616e207a65726f60c81b6064820152608490fd5b5162461bcd60e51b8152602081840152602960248201527f446f6e6174696f6e20616d6f756e74206d7573742062652067726561746572206044820152687468616e207a65726f60b81b6064820152608490fd5b5162461bcd60e51b8152602081840152601060248201526f21b0b6b830b4b3b71034b99037bb32b960811b6044820152606490fd5b50503461016b578160031936011261016b57602090600c549051908152f35b9190503461080b576020908160031936011261080757823591821515928381036103745760145460001995908681019081116107f4578752601383528387209160ff6003840154166107b55782546001600160a01b039390841633146107745783600f5460081c16908651946370a0823160e01b92838752338688015260249688818981855afa90811561076a578d9161073d575b50156106fd5760058301943360005285895260ff8a60002054166106cb5788929190156106635750600f5460081c169286895180958193825233898301525afa918215610659578a92610629575b5060016105ba91019182546113b5565b90555b33600052835283600020600160ff1982541617905560145495860195861161061857867f0def80f9a3b4c7a4251442658ccf516bf33ea4acaf31638fc6da8ebdb0f64c7260608888888881519384523390840152820152a180f35b634e487b7160e01b87526011905285fd5b9091508581813d8311610652575b6106418183611330565b810103126103b757519060016105aa565b503d610637565b87513d8c823e3d90fd5b93905086895180958193825233898301525afa918215610659578a9261069b575b50600261069491019182546113b5565b90556105bd565b9091508581813d83116106c4575b6106b38183611330565b810103126103b75751906002610684565b503d6106a9565b895162461bcd60e51b81528088018a9052600d818a01526c105b1c9958591e481d9bdd1959609a1b6044820152606490fd5b885162461bcd60e51b8152808701899052601b818901527a496e73756666696369656e7420746f6b656e7320746f20766f746560281b6044820152606490fd5b90508881813d8311610763575b6107548183611330565b810103126103b757513861055c565b503d61074a565b8a513d8f823e3d90fd5b855162461bcd60e51b8152808401869052601b60248201527a10d85b9b9bdd081d9bdd19481bdb881bdddb881c1c9bdc1bdcd85b602a1b6044820152606490fd5b845162461bcd60e51b81528083018590526019602482015278141c9bdc1bdcd85b08185b1c9958591e48195e1958dd5d1959603a1b6044820152606490fd5b634e487b7160e01b885260118252602488fd5b8380fd5b8280fd5b90503461080b578260031936011261080b5760209250549051908152f35b90503461080b57602036600319011261080b57356001600160a01b0381169081900361080b57828291602094526010845220549051908152f35b50503461016b578160031936011261016b5760025490516001600160a01b039091168152602090f35b50503461016b578160031936011261016b57602090600b549051908152f35b50503461016b578160031936011261016b57600f54905160089190911c6001600160a01b03168152602090f35b50503461016b578160031936011261016b576020906003549051908152f35b50503461016b578160031936011261016b5760085490516001600160a01b039091168152602090f35b828434610a095780600319360112610a095750805190600092600180549081811c9181811680156109ff575b60209485851082146109ec57508387529081156109cc5750600114610990575b5050506109828261098c940383611330565b5191829182611351565b0390f35b6000818152838120939650925b8284106109b9575050508261098c946109829282010194610970565b805486850188015292860192810161099d565b60ff1916868501525050151560051b83010192506109828261098c610970565b634e487b7160e01b895260229052602488fd5b92607f1692610950565b80fd5b50503461016b578160031936011261016b576020906005549051908152f35b90503461080b57602036600319011261080b573591601254831015610a095750610a5660209261139a565b905491519160018060a01b039160031b1c168152f35b828434610a095780600319360112610a0957508051906000928354600181811c918181168015610b04575b60209485851082146109ec57508387529081156109cc5750600114610ac8575050506109828261098c940383611330565b6000808052838120939650925b828410610af1575050508261098c946109829282010194610970565b8054868501880152928601928101610ad5565b92607f1692610a97565b50503461016b578160031936011261016b5760209060ff600f541690519015158152f35b50503461016b578160031936011261016b576020906014549051908152f35b50503461016b578160031936011261016b57602090600e549051908152f35b83833461016b578160031936011261016b5760145460001990818101908111610e035783526020601381528284206003908181019160ff83541615610bb3578680f35b600580549260019360028583015492015490610bcf82846113b5565b9081871b9180830460021490151715610df0579086959493929111159182610de6575b505015610dd457845461ff0019168555600d805460ff19169055479089808a898e885b610c90575b5050505050505050505b60ff1982541617809155601454928301928311610c7d577f948f4a9cd986f1118c3fbd459f7a22b23c0693e1ca3ef06a6a8be5aa7d39cc0394955060ff90845193845260081c16151590820152a1808280808080808680f35b634e487b7160e01b855260118652602485fd5b601254851015610dcf5782610ca48661139a565b90546001600160a01b03918b1b1c8116808752601085529190952054909490610ce0575b5050505050610cd69061140b565b8a8a898e88610c15565b8495969798995090602491600f959394955460081c16945194859384926370a0823160e01b84528301525afa908115610dc5578c91610d96575b50610d28610d3091866113d8565b8454906113eb565b8b8183828215610d8d575b839283928392f115610d835791610cd6917f3367befd2b2f39615cd79917c2153263c4af1d3945ec003e5d5bfc13a8d858338a89989796958e51908152a2908a898e38610cc8565b8a513d8d823e3d90fd5b506108fc610d3b565b90508881813d8311610dbe575b610dad8183611330565b810103126103b75751610d28610d1a565b503d610da3565b8b513d8e823e3d90fd5b610c1a565b505060ff19600d541617600d55610c24565b1190508b80610bf2565b634e487b7160e01b8c5260118d5260248cfd5b634e487b7160e01b845260118552602484fd5b90503461080b57602036600319011261080b57356001600160a01b0381169081900361080b57818360ff92602095526011855220541690519015158152f35b8391503461016b57602036600319011261016b573590601654821015610a095750601660005260206000209060011b01600160ff825416910154825191151582526020820152f35b90503461080b578260031936011261080b57610ebe600a54600954906113b5565b42111561113a57610ecd611252565b508360ff8092541615600014610f935750600d541615610f525750818080806064610f0947806007556001610f00611252565b500154906113d8565b04610f12611252565b50805460ff1916600117905542600e55818115610f49575b3390f115610f3f5750610f3b61147d565b5080f35b51903d90823e3d90fd5b506108fc610f2a565b6020606492519162461bcd60e51b8352820152601c60248201527b119d5b991cc81dda5d1a191c985dd85b081b9bdd08185b1b1bddd95960221b6044820152fd5b909182610f9e61129b565b50541661106a57610fbe610fb7600e54600c54906113b5565b421161141a565b303b1561016b5781845180926306e60b1760e31b82528183305af180156110605761104c575b5050600d5416610ff2575080f35b610ffa61129b565b50805460ff1916600117905542600e5561101261147d565b508180808060646110296007546001610f0061129b565b04818115611043575b3390f1610f3b5751903d90823e3d90fd5b506108fc611032565b61105590611307565b61080b578238610fe4565b84513d84823e3d90fd5b9050816110756112d1565b50541615611084575b50505080f35b611096610fb7600e54600c54906113b5565b303b156108075783835180926306e60b1760e31b82528183305af1801561112d5761111a575b50600d54166110cd575b808061107e565b6110d56112d1565b50600160ff198254161790558180808060646110f76007546001610f006112d1565b04818115611111575b3390f16110c65751903d90823e3d90fd5b506108fc611100565b61112690939193611307565b91386110bc565b50505051903d90823e3d90fd5b6020608492519162461bcd60e51b8352820152602560248201527f4f6e676f696e672043616d706169676e203a20796f752063616e277420776974604482015264686472617760d81b6064820152fd5b50503461016b578160031936011261016b576020906007549051908152f35b50503461016b578160031936011261016b576020906006549051908152f35b50503461016b578160031936011261016b576020906009549051908152f35b9291503461080757602036600319011261080757808260c09560ff933581526013602052209060018060a01b03825416936001830154600284015492600385015494015495875260208701528501528181161515606085015260081c161515608083015260a0820152f35b6016541561128557601660009081527fd833147d7dc355ba459fc788f669e58cfaf9dc25ddcd0702e87d69c7b512428991565b634e487b7160e01b600052603260045260246000fd5b6016546001101561128557601660009081527fd833147d7dc355ba459fc788f669e58cfaf9dc25ddcd0702e87d69c7b512428b91565b6016546002101561128557601660009081527fd833147d7dc355ba459fc788f669e58cfaf9dc25ddcd0702e87d69c7b512428d91565b6001600160401b03811161131a57604052565b634e487b7160e01b600052604160045260246000fd5b90601f801991011681019081106001600160401b0382111761131a57604052565b6020808252825181830181905290939260005b82811061138657505060409293506000838284010152601f8019910116010190565b818101860151848201604001528501611364565b60125481101561128557601260005260206000200190600090565b919082018092116113c257565b634e487b7160e01b600052601160045260246000fd5b818102929181159184041417156113c257565b81156113f5570490565b634e487b7160e01b600052601260045260246000fd5b60001981146113c25760010190565b1561142157565b60405162461bcd60e51b815260206004820152602e60248201527f57616974207472616e636865206e6f7420756e6c6f636b6564203a20796f752060448201526d63616e277420776974686472617760901b6064820152608490fd5b6014546114898161140b565b601455600081815260136020526040902080546001600160a01b0319163017815560038101805461ff001916610100179055600b546004906114cb90426113b5565b9101557fcd423cc1203c0af96b9b3d68d73b3064a69de2d14450bb7181c5e5df2132b35860408051838152336020820152a19056fea2646970667358221220ca8ea71abaf0892b518176dde0304673162667d6f00b14621c3661cda5a3a81164736f6c63430008140033290decd9548b62a8d60345a988386fc84ba6bc95484008f6362f93160ef3e563b10e2d527612073b26eecdfd717e6a320cf44b4afac2b0732d9fcbe2b7fa0cf660406080815262000c54803803806200001881620003e1565b9283398101606082820312620003dc57815191602091828201519160018060401b0392838111620003dc57826200005191830162000407565b9186820151848111620003dc576200006a920162000407565b918151818111620002dc576003908154906001948583811c93168015620003d1575b88841014620003bb578190601f9384811162000365575b508890848311600114620002fe57600092620002f2575b505060001982851b1c191690851b1782555b8451928311620002dc5760049485548581811c91168015620002d1575b88821014620002bc5782811162000271575b50869184116001146200020657938394918492600095620001fa575b50501b92600019911b1c19161781555b3315620001e35760058054336001600160a01b0319821681179092556001600160a01b03167f8be0079c531659141344cd1fd0a4f28419497f9722a3daafe3b4186f6b6457e0600080a360025490838201809211620001ce57506000917fddf252ad1be2c89b69c2b068fc378daa952ba7f163c4a11628f55a4df523b3ef9160025533835282815284832084815401905584519384523393a3516107da90816200047a8239f35b601190634e487b7160e01b6000525260246000fd5b6024906000855191631e4fbdf760e01b8352820152fd5b01519350388062000117565b9190601f198416928660005284886000209460005b8a898383106200025957505050106200023e575b50505050811b01815562000127565b01519060f884600019921b161c19169055388080806200022f565b8686015189559097019694850194889350016200021b565b86600052876000208380870160051c8201928a8810620002b2575b0160051c019086905b828110620002a5575050620000fb565b6000815501869062000295565b925081926200028c565b602287634e487b7160e01b6000525260246000fd5b90607f1690620000e9565b634e487b7160e01b600052604160045260246000fd5b015190503880620000ba565b90879350601f19831691866000528a6000209260005b8c8282106200034e575050841162000335575b505050811b018255620000cc565b015160001983871b60f8161c1916905538808062000327565b8385015186558b9790950194938401930162000314565b90915084600052886000208480850160051c8201928b8610620003b1575b918991869594930160051c01915b828110620003a1575050620000a3565b6000815585945089910162000391565b9250819262000383565b634e487b7160e01b600052602260045260246000fd5b92607f16926200008c565b600080fd5b6040519190601f01601f191682016001600160401b03811183821017620002dc57604052565b919080601f84011215620003dc5782516001600160401b038111620002dc576020906200043d601f8201601f19168301620003e1565b92818452828287010111620003dc5760005b8181106200046557508260009394955001015290565b85810183015184820184015282016200044f56fe6080604081815260048036101561001557600080fd5b600092833560e01c90816306fdde031461054057508063095ea7b31461049757806318160ddd1461047857806323b872dd1461038f578063313ce5671461037357806370a082311461033c578063715018a6146102dc5780638da5cb5b146102b357806395d89b41146101b1578063a9059cbb14610180578063dd62ed3e146101335763f2fde38b146100a757600080fd5b3461012f57602036600319011261012f576100c0610660565b906100c9610691565b6001600160a01b03918216928315610119575050600580546001600160a01b031981168417909155167f8be0079c531659141344cd1fd0a4f28419497f9722a3daafe3b4186f6b6457e08380a380f35b51631e4fbdf760e01b8152908101849052602490fd5b8280fd5b50503461017c578060031936011261017c5780602092610151610660565b61015961067b565b6001600160a01b0391821683526001865283832091168252845220549051908152f35b5080fd5b50503461017c578060031936011261017c576020906101aa6101a0610660565b60243590336106bd565b5160018152f35b5091903461017c578160031936011261017c57805190828454600181811c908083169283156102a9575b60209384841081146102965783885290811561027a5750600114610242575b505050829003601f01601f19168201926001600160401b0384118385101761022f575082918261022b925282610617565b0390f35b634e487b7160e01b815260418552602490fd5b919250868652828620918387935b83851061026657505050508301013880806101fa565b805488860183015293019284908201610250565b60ff1916878501525050151560051b84010190503880806101fa565b634e487b7160e01b895260228a52602489fd5b91607f16916101db565b50503461017c578160031936011261017c5760055490516001600160a01b039091168152602090f35b83346103395780600319360112610339576102f5610691565b600580546001600160a01b0319811690915581906001600160a01b03167f8be0079c531659141344cd1fd0a4f28419497f9722a3daafe3b4186f6b6457e08280a380f35b80fd5b50503461017c57602036600319011261017c5760209181906001600160a01b03610364610660565b16815280845220549051908152f35b50503461017c578160031936011261017c576020905160128152f35b508234610339576060366003190112610339576103aa610660565b6103b261067b565b916044359360018060a01b0383168083526001602052868320338452602052868320549160001983036103ee575b6020886101aa8989896106bd565b86831061045657811561043f573315610428575082526001602090815286832033845281529186902090859003905582906101aa876103e0565b8751634a1406b160e11b8152908101849052602490fd5b875163e602df0560e01b8152908101849052602490fd5b9050610474868851938493637dc7a0d960e11b855233908501610786565b0390fd5b50503461017c578160031936011261017c576020906002549051908152f35b503461012f578160031936011261012f576104b0610660565b602435903315610529576001600160a01b031691821561051257508083602095338152600187528181208582528752205582519081527f8c5be1e5ebec7d5bd14f71427d1e84f3dd0314c0f7b2291e5b200ac8c7c3b925843392a35160018152f35b8351634a1406b160e11b8152908101859052602490fd5b835163e602df0560e01b8152808401869052602490fd5b849150833461012f578260031936011261012f5782600354600181811c9080831692831561060d575b6020938484108114610296578388529081156105f157506001146105b857505050829003601f01601f19168201926001600160401b0384118385101761022f575082918261022b925282610617565b91925060038652828620918387935b8385106105dd57505050508301018580806101fa565b8054888601830152930192849082016105c7565b60ff1916878501525050151560051b84010190508580806101fa565b91607f1691610569565b6020808252825181830181905290939260005b82811061064c57505060409293506000838284010152601f8019910116010190565b81810186015184820160400152850161062a565b600435906001600160a01b038216820361067657565b600080fd5b602435906001600160a01b038216820361067657565b6005546001600160a01b031633036106a557565b60405163118cdaa760e01b8152336004820152602490fd5b916001600160a01b0380841692831561076d57169283156107545760009083825281602052604082205490838210610737575091604082827fddf252ad1be2c89b69c2b068fc378daa952ba7f163c4a11628f55a4df523b3ef958760209652828652038282205586815220818154019055604051908152a3565b6104748460405193849363391434e360e21b855260048501610786565b60405163ec442f0560e01b815260006004820152602490fd5b604051634b637e8f60e11b815260006004820152602490fd5b604091949392606082019560018060a01b031682526020820152015256fea264697066735822122080fc3fc869896b74521e524535c6e77a9497cb977cbe76ecbd68935dd36e77ea64736f6c63430008140033a2646970667358221220e6af13d30ee616984fb164e1e0251c298f0088fefb3a4b7bbf3a73f34f0b5ce164736f6c63430008140033",
  "devdoc": {
    "kind": "dev",
    "methods": {},
    "version": 1
  },
  "userdoc": {
    "kind": "user",
    "methods": {},
    "version": 1
  },
  "storageLayout": {
    "storage": [
      {
        "astId": 2292,
        "contract": "src/services/blockchain/contracts/Campaign/CharityCampaignFactoryDAO.sol:CharityCampaignFactoryDAO",
        "label": "associationFactory",
        "offset": 0,
        "slot": "0",
        "type": "t_contract(AssociationFactory)1478"
      }
    ],
    "types": {
      "t_contract(AssociationFactory)1478": {
        "encoding": "inplace",
        "label": "contract AssociationFactory",
        "numberOfBytes": "20"
      }
    }
  }
}