{
  "address": "0x3431aD2bae080018B862C58FB03455bB260DA5e4",
  "abi": [
    {
      "inputs": [
        {
          "internalType": "address",
          "name": "_associationFactory",
          "type": "address"
        }
      ],
      "stateMutability": "nonpayable",
      "type": "constructor"
    },
    {
      "anonymous": false,
      "inputs": [
        {
          "indexed": false,
          "internalType": "address",
          "name": "campaignAddress",
          "type": "address"
        },
        {
          "indexed": false,
          "internalType": "address",
          "name": "tokenAddress",
          "type": "address"
        }
      ],
      "name": "CampaignCreated",
      "type": "event"
    },
    {
      "inputs": [],
      "name": "associationFactory",
      "outputs": [
        {
          "internalType": "contract AssociationFactory",
          "name": "",
          "type": "address"
        }
      ],
      "stateMutability": "view",
      "type": "function"
    },
    {
      "inputs": [
        {
          "internalType": "string",
          "name": "_name",
          "type": "string"
        },
        {
          "internalType": "string",
          "name": "_description",
          "type": "string"
        },
        {
          "internalType": "address",
          "name": "_targetUser",
          "type": "address"
        },
        {
          "internalType": "uint256",
          "name": "_targetAmount",
          "type": "uint256"
        },
        {
          "internalType": "uint256",
          "name": "_refundThreshold",
          "type": "uint256"
        },
        {
          "internalType": "uint256",
          "name": "_tokenSupply",
          "type": "uint256"
        },
        {
          "internalType": "string",
          "name": "_tokenName",
          "type": "string"
        },
        {
          "internalType": "string",
          "name": "_tokenSymbol",
          "type": "string"
        }
      ],
      "name": "createCampaign",
      "outputs": [],
      "stateMutability": "nonpayable",
      "type": "function"
    }
  ],
  "transactionHash": "0xa77054f0f455eef89eee08aee3f9de55c66246592f7872ec20f4c31335f6abf4",
  "args": [
    "0xE692739C654ED63eb812A069ef4689B893c3d70B"
  ],
  "numDeployments": 2,
  "solcInputHash": "b66bde8e7bb114c40674ac7066f301d3",
  "bytecode": "0x60803461007457601f612b7e38819003918201601f19168301916001600160401b038311848410176100795780849260209460405283398101031261007457516001600160a01b0381169081900361007457600080546001600160a01b031916919091179055604051612aee90816100908239f35b600080fd5b634e487b7160e01b600052604160045260246000fdfe60806040908082526004803610156200001757600080fd5b600091823560e01c9081637a8c719514620002ef575063f4690f08146200003d57600080fd5b34620002eb57610100366003190112620002eb576001600160401b03928135848111620002e7576200007390369084016200034d565b936024948535828111620002e3576200009090369086016200034d565b916044359460018060a01b03808716809703620002b35760a4359460c435848111620002df57620000c590369085016200034d565b9760e435858111620002db57620000e090369086016200034d565b98885190610c54908183019183831089841117620002bf579a809c84936200012762000134948e9f9e60609e9f62001e658939835260209d8e8401526060830190620003ad565b92818403910152620003ad565b03908bf08015620002d157831696895192611a75918285019285841089851117620002bf57926200018d8b936200017f60c094899897620003f08a3960e0855260e0850190620003ad565b908382038d850152620003ad565b938d820152606435606082015260843560808201523360a08201520152039089f080156200027357169486519063a9059cbb60e01b825286838301528982015283816044818b895af18015620002735762000281575b50833b156200027d57855163f2fde38b60e01b81528181018690529187838a8183895af18015620002735762000247575b5050507f6056366dba45431fd6a8854ad9f2594942b02c4f2c3f6fbc329b3079b027b8b49495508351928352820152a180f35b829793971162000261575084529394508438808062000214565b634e487b7160e01b8352604190528682fd5b87513d8a823e3d90fd5b8680fd5b8381813d8311620002b7575b62000299818362000315565b81010312620002b35751801515036200027d5738620001e3565b8780fd5b503d6200028d565b634e487b7160e01b8e52604188528e8efd5b89513d8c823e3d90fd5b8a80fd5b8980fd5b8580fd5b8380fd5b5080fd5b839034620002eb5781600319360112620002eb5790546001600160a01b03168152602090f35b90601f801991011681019081106001600160401b038211176200033757604052565b634e487b7160e01b600052604160045260246000fd5b81601f82011215620003a8578035906001600160401b03821162000337576040519262000385601f8401601f19166020018562000315565b82845260208383010111620003a857816000926020809301838601378301015290565b600080fd5b919082519283825260005b848110620003da575050826000602080949584010152601f8019910116010190565b602081830181015184830182015201620003b856fe608060405234620004265762001a75803803806200001d816200044b565b928339810160e082820312620004265781516001600160401b0391908281116200042657816200004f91850162000471565b602091828501519084821162000426576200006c91860162000471565b936200007b60408201620004e3565b90606081015190608081015191620000a460c06200009c60a08501620004e3565b9301620004e3565b9160786009556078600b556078600c5585519780891162000410576000988954976001988981811c9116801562000405575b8b821014620003f1579180918b8d94601f809681831162000396575b92505050508b908d85841160011462000330579262000324575b5050600019600383901b1c191690891b178a555b8a51918211620003105787548881811c9116801562000305575b8a821014620002f157818111620002a9575b508890821160011462000239579080603299989796959493926200021d9c8c926200022d575b5050600019600383901b1c191690871b1786555b60018060a01b039384928360018060a01b03199716876002541617600255600355600655168360085416176008551690600f541617600f5542600a5560ff19600d541617600d55620001ea620001db6200042b565b848152601483820152620004f8565b62000207620001f86200042b565b848152601e83820152620004f8565b620002116200042b565b928352820152620004f8565b60405161151790816200055e8239f35b01519050388062000172565b878a52888a2090601f1983168b5b8181106200029357509183916200021d9d8b9a999897969560329d9c951062000279575b505050811b01865562000186565b015160001960f88460031b161c191690553880806200026b565b8d8301518455928a0192918b01918b0162000247565b888b52898b208280850160051c8201928c8610620002e7575b0160051c019089905b828110620002db5750506200014c565b8c8155018990620002cb565b92508192620002c2565b634e487b7160e01b8b52602260045260248bfd5b90607f16906200013a565b634e487b7160e01b8a52604160045260248afd5b0151905038806200010c565b8080528d81208d9550929190601f198516908f5b8282106200037e575050841162000364575b505050811b018a5562000120565b015160001960f88460031b161c1916905538808062000356565b8385015186558f979095019493840193018f62000344565b8394955080809492939452209181860160051c8301938610620003e7575b859493910160051c909101908c908f5b838210620003d8578f9350879150620000f2565b81558594508d91018f620003c4565b92508192620003b4565b634e487b7160e01b8c52602260045260248cfd5b90607f1690620000d6565b634e487b7160e01b600052604160045260246000fd5b600080fd5b60408051919082016001600160401b038111838210176200041057604052565b6040519190601f01601f191682016001600160401b038111838210176200041057604052565b919080601f84011215620004265782516001600160401b0381116200041057602090620004a7601f8201601f191683016200044b565b92818452828287010111620004265760005b818110620004cf57508260009394955001015290565b8581018301518482018401528201620004b9565b51906001600160a01b03821682036200042657565b60155468010000000000000000811015620004105760018101806015558110156200054757602060019160156000528160002090831b01928051151560ff801986541691161784550151910155565b634e487b7160e01b600052603260045260246000fdfe608060408181526004918236101561001657600080fd5b600092833560e01c918263013cf08b14611172575081630fb5a6b41461115357816316fc4869146111345781632129e25a1461111557816324600fc314610de957816326c2596214610da15781632bc3d7aa14610d62578163373058b814610abf5781633f3b3b2714610aa0578163400e394914610a815781634a79d50c146109df5781634abfa1631461099e578163671b37931461097f5781637284e416146108975781638da5cb5b1461086e578163953b8fb81461084f5781639d76ea5814610826578163a78b17cc14610807578163c255343e146107de578163cc6cb19a146107a4578163de2ed89314610786578163e3ccb80914610444578163ec752dcb14610425578163ed88c68e1461015e575063f1ead2521461013857600080fd5b3461015a578160031936011261015a5760209060ff600d541690519015158152f35b5080fd5b83838160031936011261015a5734156103d15760035490811561037f57600f5481516318160ddd60e01b81526020936001600160a01b03928316929185818981875afa908115610375579186918893849161033b575b50906101c36101c89234611363565b611376565b93604486518094819363a9059cbb60e01b8352338d8401528860248401525af18015610331576102f6575b5033855260108452828520610209348254611340565b90553385526011845260ff83862054161561026f575b507f4b0304ab2f313234b1cea012339c8f8c3bf2c8bb357d81a579cfdb35d2e3d03092939461024f348254611340565b905561025d81600554611340565b6005558151933485528401523392a280f35b601254600160401b8110156102e357906102b38260017f4b0304ab2f313234b1cea012339c8f8c3bf2c8bb357d81a579cfdb35d2e3d0309798999401601255611325565b819291549060031b9133831b921b191617905533865260118552828620600160ff1982541617905594939261021f565b634e487b7160e01b865260418752602486fd5b8481813d831161032a575b61030b81836112bb565b8101031261032657518015150361032257866101f3565b8480fd5b8580fd5b503d610301565b84513d88823e3d90fd5b9350509082813d831161036e575b61035381836112bb565b81010312610369579051869186916101c36101b4565b600080fd5b503d610349565b85513d89823e3d90fd5b5162461bcd60e51b8152602081850152602760248201527f54617267657420616d6f756e74206d7573742062652067726561746572207468604482015266616e207a65726f60c81b6064820152608490fd5b5162461bcd60e51b8152602081840152602960248201527f446f6e6174696f6e20616d6f756e74206d7573742062652067726561746572206044820152687468616e207a65726f60b81b6064820152608490fd5b50503461015a578160031936011261015a57602090600c549051908152f35b91905034610782576020908160031936011261077e578235918215159283810361032657601454600019959086810190811161076b578752601383528387209160ff60038401541661072c5782546001600160a01b039390841633146106eb5783600f5416908651946370a0823160e01b92838752338688015260249688818981855afa9081156106e1578d916106b4575b50156106745760058301943360005285895260ff8a60002054166106425788929190156105da5750600f54169286895180958193825233898301525afa9182156105d0578a926105a0575b5060016105319101918254611340565b90555b33600052835283600020600160ff1982541617905560145495860195861161058f57867f0def80f9a3b4c7a4251442658ccf516bf33ea4acaf31638fc6da8ebdb0f64c7260608888888881519384523390840152820152a180f35b634e487b7160e01b87526011905285fd5b9091508581813d83116105c9575b6105b881836112bb565b810103126103695751906001610521565b503d6105ae565b87513d8c823e3d90fd5b93905086895180958193825233898301525afa9182156105d0578a92610612575b50600261060b9101918254611340565b9055610534565b9091508581813d831161063b575b61062a81836112bb565b8101031261036957519060026105fb565b503d610620565b895162461bcd60e51b81528088018a9052600d818a01526c105b1c9958591e481d9bdd1959609a1b6044820152606490fd5b885162461bcd60e51b8152808701899052601b818901527a496e73756666696369656e7420746f6b656e7320746f20766f746560281b6044820152606490fd5b90508881813d83116106da575b6106cb81836112bb565b810103126103695751386104d6565b503d6106c1565b8a513d8f823e3d90fd5b855162461bcd60e51b8152808401869052601b60248201527a10d85b9b9bdd081d9bdd19481bdb881bdddb881c1c9bdc1bdcd85b602a1b6044820152606490fd5b845162461bcd60e51b81528083018590526019602482015278141c9bdc1bdcd85b08185b1c9958591e48195e1958dd5d1959603a1b6044820152606490fd5b634e487b7160e01b885260118252602488fd5b8380fd5b8280fd5b90503461078257826003193601126107825760209250549051908152f35b90503461078257602036600319011261078257356001600160a01b0381169081900361078257828291602094526010845220549051908152f35b50503461015a578160031936011261015a5760025490516001600160a01b039091168152602090f35b50503461015a578160031936011261015a57602090600b549051908152f35b50503461015a578160031936011261015a57600f5490516001600160a01b039091168152602090f35b50503461015a578160031936011261015a576020906003549051908152f35b50503461015a578160031936011261015a5760085490516001600160a01b039091168152602090f35b82843461097c578060031936011261097c5750805190600092600180549081811c918181168015610972575b602094858510821461095f575083875290811561093f5750600114610903575b5050506108f5826108ff9403836112bb565b51918291826112dc565b0390f35b6000818152838120939650925b82841061092c57505050826108ff946108f592820101946108e3565b8054868501880152928601928101610910565b60ff1916868501525050151560051b83010192506108f5826108ff6108e3565b634e487b7160e01b895260229052602488fd5b92607f16926108c3565b80fd5b50503461015a578160031936011261015a576020906005549051908152f35b90503461078257602036600319011261078257359160125483101561097c57506109c9602092611325565b905491519160018060a01b039160031b1c168152f35b82843461097c578060031936011261097c57508051906000928354600181811c918181168015610a77575b602094858510821461095f575083875290811561093f5750600114610a3b575050506108f5826108ff9403836112bb565b6000808052838120939650925b828410610a6457505050826108ff946108f592820101946108e3565b8054868501880152928601928101610a48565b92607f1692610a0a565b50503461015a578160031936011261015a576020906014549051908152f35b50503461015a578160031936011261015a57602090600e549051908152f35b83833461015a578160031936011261015a5760145460001990818101908111610d4f5783526020601381528284206003908181019160ff83541615610b02578680f35b600580549260019360028583015492015490610b1e8284611340565b9081871b9180830460021490151715610d3c579086959493929111159182610d32575b505015610d2057845461ff0019168555600d805460ff19169055479089808a898e885b610bdf575b5050505050505050505b60ff1982541617809155601454928301928311610bcc577f948f4a9cd986f1118c3fbd459f7a22b23c0693e1ca3ef06a6a8be5aa7d39cc0394955060ff90845193845260081c16151590820152a1808280808080808680f35b634e487b7160e01b855260118652602485fd5b601254851015610d1b5782610bf386611325565b90546001600160a01b03918b1b1c8116808752601085529190952054909490610c2f575b5050505050610c2590611396565b8a8a898e88610b64565b8495969798995090602491600f959394955416945194859384926370a0823160e01b84528301525afa908115610d11578c91610ce2575b50610c74610c7c9186611363565b845490611376565b8b8183828215610cd9575b839283928392f115610ccf5791610c25917f3367befd2b2f39615cd79917c2153263c4af1d3945ec003e5d5bfc13a8d858338a89989796958e51908152a2908a898e38610c17565b8a513d8d823e3d90fd5b506108fc610c87565b90508881813d8311610d0a575b610cf981836112bb565b810103126103695751610c74610c66565b503d610cef565b8b513d8e823e3d90fd5b610b69565b505060ff19600d541617600d55610b73565b1190508b80610b41565b634e487b7160e01b8c5260118d5260248cfd5b634e487b7160e01b845260118552602484fd5b90503461078257602036600319011261078257356001600160a01b0381169081900361078257818360ff92602095526011855220541690519015158152f35b8391503461015a57602036600319011261015a57359060155482101561097c5750601560005260206000209060011b01600160ff825416910154825191151582526020820152f35b905034610782578260031936011261078257610e0a600a5460095490611340565b4211156110c557610e196111dd565b508360ff8092541615600014610ef45750600d541615610eb35750610e4960018060a01b03600854163314611408565b818080806064610e6a47806007556001610e616111dd565b50015490611363565b04610e736111dd565b50805460ff1916600117905542600e55818115610eaa575b3390f115610ea05750610e9c61145e565b5080f35b51903d90823e3d90fd5b506108fc610e8b565b6020606492519162461bcd60e51b8352820152601c60248201527b119d5b991cc81dda5d1a191c985dd85b081b9bdd08185b1b1bddd95960221b6044820152fd5b909182610eff611226565b505416610fe057610f1f610f18600e54600c5490611340565b42116113a5565b303b1561015a5781845180926306e60b1760e31b82528183305af18015610fd657610fc2575b5050600d5416610f53575080f35b610f6860018060a01b03600854163314611408565b610f70611226565b50805460ff1916600117905542600e55610f8861145e565b50818080806064610f9f6007546001610e61611226565b04818115610fb9575b3390f1610e9c5751903d90823e3d90fd5b506108fc610fa8565b610fcb90611292565b610782578238610f45565b84513d84823e3d90fd5b905081610feb61125c565b50541615610ffa575b50505080f35b61100c610f18600e54600c5490611340565b303b1561077e5783835180926306e60b1760e31b82528183305af180156110b8576110a5575b50600d5416611043575b8080610ff4565b61105860018060a01b03600854163314611408565b61106061125c565b50600160ff198254161790558180808060646110826007546001610e6161125c565b0481811561109c575b3390f161103c5751903d90823e3d90fd5b506108fc61108b565b6110b190939193611292565b9138611032565b50505051903d90823e3d90fd5b6020608492519162461bcd60e51b8352820152602560248201527f4f6e676f696e672043616d706169676e203a20796f752063616e277420776974604482015264686472617760d81b6064820152fd5b50503461015a578160031936011261015a576020906007549051908152f35b50503461015a578160031936011261015a576020906006549051908152f35b50503461015a578160031936011261015a576020906009549051908152f35b9291503461077e57602036600319011261077e57808260c09560ff933581526013602052209060018060a01b03825416936001830154600284015492600385015494015495875260208701528501528181161515606085015260081c161515608083015260a0820152f35b6015541561121057601560009081527f55f448fdea98c4d29eb340757ef0a66cd03dbb9538908a6a81d96026b71ec47591565b634e487b7160e01b600052603260045260246000fd5b6015546001101561121057601560009081527f55f448fdea98c4d29eb340757ef0a66cd03dbb9538908a6a81d96026b71ec47791565b6015546002101561121057601560009081527f55f448fdea98c4d29eb340757ef0a66cd03dbb9538908a6a81d96026b71ec47991565b6001600160401b0381116112a557604052565b634e487b7160e01b600052604160045260246000fd5b90601f801991011681019081106001600160401b038211176112a557604052565b6020808252825181830181905290939260005b82811061131157505060409293506000838284010152601f8019910116010190565b8181018601518482016040015285016112ef565b60125481101561121057601260005260206000200190600090565b9190820180921161134d57565b634e487b7160e01b600052601160045260246000fd5b8181029291811591840414171561134d57565b8115611380570490565b634e487b7160e01b600052601260045260246000fd5b600019811461134d5760010190565b156113ac57565b60405162461bcd60e51b815260206004820152602e60248201527f57616974207472616e636865206e6f7420756e6c6f636b6564203a20796f752060448201526d63616e277420776974686472617760901b6064820152608490fd5b1561140f57565b60405162461bcd60e51b815260206004820152602160248201527f4f6e6c7920746865206f776e65722063616e2077697468647261772066756e646044820152607360f81b6064820152608490fd5b60145461146a81611396565b601455600081815260136020526040902080546001600160a01b0319163017815560038101805461ff001916610100179055600b546004906114ac9042611340565b9101557fcd423cc1203c0af96b9b3d68d73b3064a69de2d14450bb7181c5e5df2132b35860408051838152336020820152a19056fea264697066735822122011aee0a5f2db0ab944142234e5942011115622873e76996753de069a6184440c64736f6c6343000814003360406080815262000c54803803806200001881620003e1565b9283398101606082820312620003dc57815191602091828201519160018060401b0392838111620003dc57826200005191830162000407565b9186820151848111620003dc576200006a920162000407565b918151818111620002dc576003908154906001948583811c93168015620003d1575b88841014620003bb578190601f9384811162000365575b508890848311600114620002fe57600092620002f2575b505060001982851b1c191690851b1782555b8451928311620002dc5760049485548581811c91168015620002d1575b88821014620002bc5782811162000271575b50869184116001146200020657938394918492600095620001fa575b50501b92600019911b1c19161781555b3315620001e35760058054336001600160a01b0319821681179092556001600160a01b03167f8be0079c531659141344cd1fd0a4f28419497f9722a3daafe3b4186f6b6457e0600080a360025490838201809211620001ce57506000917fddf252ad1be2c89b69c2b068fc378daa952ba7f163c4a11628f55a4df523b3ef9160025533835282815284832084815401905584519384523393a3516107da90816200047a8239f35b601190634e487b7160e01b6000525260246000fd5b6024906000855191631e4fbdf760e01b8352820152fd5b01519350388062000117565b9190601f198416928660005284886000209460005b8a898383106200025957505050106200023e575b50505050811b01815562000127565b01519060f884600019921b161c19169055388080806200022f565b8686015189559097019694850194889350016200021b565b86600052876000208380870160051c8201928a8810620002b2575b0160051c019086905b828110620002a5575050620000fb565b6000815501869062000295565b925081926200028c565b602287634e487b7160e01b6000525260246000fd5b90607f1690620000e9565b634e487b7160e01b600052604160045260246000fd5b015190503880620000ba565b90879350601f19831691866000528a6000209260005b8c8282106200034e575050841162000335575b505050811b018255620000cc565b015160001983871b60f8161c1916905538808062000327565b8385015186558b9790950194938401930162000314565b90915084600052886000208480850160051c8201928b8610620003b1575b918991869594930160051c01915b828110620003a1575050620000a3565b6000815585945089910162000391565b9250819262000383565b634e487b7160e01b600052602260045260246000fd5b92607f16926200008c565b600080fd5b6040519190601f01601f191682016001600160401b03811183821017620002dc57604052565b919080601f84011215620003dc5782516001600160401b038111620002dc576020906200043d601f8201601f19168301620003e1565b92818452828287010111620003dc5760005b8181106200046557508260009394955001015290565b85810183015184820184015282016200044f56fe6080604081815260048036101561001557600080fd5b600092833560e01c90816306fdde031461054057508063095ea7b31461049757806318160ddd1461047857806323b872dd1461038f578063313ce5671461037357806370a082311461033c578063715018a6146102dc5780638da5cb5b146102b357806395d89b41146101b1578063a9059cbb14610180578063dd62ed3e146101335763f2fde38b146100a757600080fd5b3461012f57602036600319011261012f576100c0610660565b906100c9610691565b6001600160a01b03918216928315610119575050600580546001600160a01b031981168417909155167f8be0079c531659141344cd1fd0a4f28419497f9722a3daafe3b4186f6b6457e08380a380f35b51631e4fbdf760e01b8152908101849052602490fd5b8280fd5b50503461017c578060031936011261017c5780602092610151610660565b61015961067b565b6001600160a01b0391821683526001865283832091168252845220549051908152f35b5080fd5b50503461017c578060031936011261017c576020906101aa6101a0610660565b60243590336106bd565b5160018152f35b5091903461017c578160031936011261017c57805190828454600181811c908083169283156102a9575b60209384841081146102965783885290811561027a5750600114610242575b505050829003601f01601f19168201926001600160401b0384118385101761022f575082918261022b925282610617565b0390f35b634e487b7160e01b815260418552602490fd5b919250868652828620918387935b83851061026657505050508301013880806101fa565b805488860183015293019284908201610250565b60ff1916878501525050151560051b84010190503880806101fa565b634e487b7160e01b895260228a52602489fd5b91607f16916101db565b50503461017c578160031936011261017c5760055490516001600160a01b039091168152602090f35b83346103395780600319360112610339576102f5610691565b600580546001600160a01b0319811690915581906001600160a01b03167f8be0079c531659141344cd1fd0a4f28419497f9722a3daafe3b4186f6b6457e08280a380f35b80fd5b50503461017c57602036600319011261017c5760209181906001600160a01b03610364610660565b16815280845220549051908152f35b50503461017c578160031936011261017c576020905160128152f35b508234610339576060366003190112610339576103aa610660565b6103b261067b565b916044359360018060a01b0383168083526001602052868320338452602052868320549160001983036103ee575b6020886101aa8989896106bd565b86831061045657811561043f573315610428575082526001602090815286832033845281529186902090859003905582906101aa876103e0565b8751634a1406b160e11b8152908101849052602490fd5b875163e602df0560e01b8152908101849052602490fd5b9050610474868851938493637dc7a0d960e11b855233908501610786565b0390fd5b50503461017c578160031936011261017c576020906002549051908152f35b503461012f578160031936011261012f576104b0610660565b602435903315610529576001600160a01b031691821561051257508083602095338152600187528181208582528752205582519081527f8c5be1e5ebec7d5bd14f71427d1e84f3dd0314c0f7b2291e5b200ac8c7c3b925843392a35160018152f35b8351634a1406b160e11b8152908101859052602490fd5b835163e602df0560e01b8152808401869052602490fd5b849150833461012f578260031936011261012f5782600354600181811c9080831692831561060d575b6020938484108114610296578388529081156105f157506001146105b857505050829003601f01601f19168201926001600160401b0384118385101761022f575082918261022b925282610617565b91925060038652828620918387935b8385106105dd57505050508301018580806101fa565b8054888601830152930192849082016105c7565b60ff1916878501525050151560051b84010190508580806101fa565b91607f1691610569565b6020808252825181830181905290939260005b82811061064c57505060409293506000838284010152601f8019910116010190565b81810186015184820160400152850161062a565b600435906001600160a01b038216820361067657565b600080fd5b602435906001600160a01b038216820361067657565b6005546001600160a01b031633036106a557565b60405163118cdaa760e01b8152336004820152602490fd5b916001600160a01b0380841692831561076d57169283156107545760009083825281602052604082205490838210610737575091604082827fddf252ad1be2c89b69c2b068fc378daa952ba7f163c4a11628f55a4df523b3ef958760209652828652038282205586815220818154019055604051908152a3565b6104748460405193849363391434e360e21b855260048501610786565b60405163ec442f0560e01b815260006004820152602490fd5b604051634b637e8f60e11b815260006004820152602490fd5b604091949392606082019560018060a01b031682526020820152015256fea2646970667358221220322d83782e2d1215fb5abeb9785ab9735e22f5a4186ceeeda64e3a3ba9b70f1964736f6c63430008140033a2646970667358221220ddd71c8fa88624aaf1679d4f1ffa46cd49796690bcc730eda788dba4e9b75ff764736f6c63430008140033",
  "devdoc": {
    "kind": "dev",
    "methods": {},
    "version": 1
  },
  "userdoc": {
    "kind": "user",
    "methods": {},
    "version": 1
  },
  "storageLayout": {
    "storage": [
      {
        "astId": 2290,
        "contract": "src/services/blockchain/contracts/Campaign/CharityCampaignFactoryDAO.sol:CharityCampaignFactoryDAO",
        "label": "associationFactory",
        "offset": 0,
        "slot": "0",
        "type": "t_contract(AssociationFactory)1478"
      }
    ],
    "types": {
      "t_contract(AssociationFactory)1478": {
        "encoding": "inplace",
        "label": "contract AssociationFactory",
        "numberOfBytes": "20"
      }
    }
  }
}