{
  "address": "0x85D33cF50c1C543689866573ecDB4486Cf972774",
  "abi": [
    {
      "anonymous": false,
      "inputs": [
        {
          "indexed": false,
          "internalType": "address",
          "name": "campaignAddress",
          "type": "address"
        },
        {
          "indexed": false,
          "internalType": "address",
          "name": "tokenAddress",
          "type": "address"
        }
      ],
      "name": "CampaignCreated",
      "type": "event"
    },
    {
      "inputs": [
        {
          "internalType": "string",
          "name": "_name",
          "type": "string"
        },
        {
          "internalType": "string",
          "name": "_description",
          "type": "string"
        },
        {
          "internalType": "address",
          "name": "_targetUser",
          "type": "address"
        },
        {
          "internalType": "uint256",
          "name": "_targetAmount",
          "type": "uint256"
        },
        {
          "internalType": "uint256",
          "name": "_refundThreshold",
          "type": "uint256"
        },
        {
          "internalType": "uint256",
          "name": "_tokenSupply",
          "type": "uint256"
        },
        {
          "internalType": "string",
          "name": "_tokenName",
          "type": "string"
        },
        {
          "internalType": "string",
          "name": "_tokenSymbol",
          "type": "string"
        }
      ],
      "name": "createCampaign",
      "outputs": [],
      "stateMutability": "nonpayable",
      "type": "function"
    }
  ],
  "transactionHash": "0x0dd2a842ba3ecd8fcc4c8dce6fe0320f4834606929ceea0eaee29c0ecaf84f76",
  "args": [],
  "numDeployments": 1,
  "solcInputHash": "fe506b5f85513dad8aeb3439be35e180",
  "bytecode": "0x6080806040523461001657612302908161001c8239f35b600080fdfe60406080815260048036101561001457600080fd5b600090813560e01c63f4690f081461002b57600080fd5b346102b0576101003660031901126102b0576001600160401b039281358481116102ac5761005c90369084016102eb565b9360249485358281116102a85761007690369086016102eb565b916044359460018060a01b038087168097036102795760a4359460c4358481116102a4576100a790369085016102eb565b9760e4358581116102a0576100bf90369086016102eb565b98885190610c54908183019183831089841117610284579a809c849361010261010e948e9f9e60609e9f620016798939835260209d8e8401526060830190610346565b92818403910152610346565b03908bf08015610296578316968951926112f291828501928584108985111761028457926101618b9361015460c094899897620003878a3960e0855260e0850190610346565b908382038d850152610346565b938d820152606435606082015260843560808201523360a08201520152039089f0801561023f57169486519063a9059cbb60e01b825286838301528982015283816044818b895af1801561023f5761024d575b50833b1561024957855163f2fde38b60e01b81528181018690529187838a8183895af1801561023f57610215575b5050507f6056366dba45431fd6a8854ad9f2594942b02c4f2c3f6fbc329b3079b027b8b49495508351928352820152a180f35b829793971161022d57508452939450843880806101e2565b634e487b7160e01b8352604190528682fd5b87513d8a823e3d90fd5b8680fd5b8381813d831161027d575b61026281836102b4565b8101031261027957518015150361024957386101b4565b8780fd5b503d610258565b634e487b7160e01b8e52604188528e8efd5b89513d8c823e3d90fd5b8a80fd5b8980fd5b8580fd5b8380fd5b5080fd5b90601f801991011681019081106001600160401b038211176102d557604052565b634e487b7160e01b600052604160045260246000fd5b81601f82011215610341578035906001600160401b0382116102d5576040519261031f601f8401601f1916602001856102b4565b8284526020838301011161034157816000926020809301838601378301015290565b600080fd5b919082519283825260005b848110610372575050826000602080949584010152601f8019910116010190565b60208183018101518483018201520161035156fe608060405234620003a357620012f2803803806200001d81620003a8565b928339810160e082820312620003a35781516001600160401b039290838111620003a357826200004f918301620003ce565b926020928383015190828211620003a3576200006d918401620003ce565b916200007c6040820162000440565b94606082015192608083015195620000a560c06200009d60a0870162000440565b950162000440565b958351918383116200038d576000908154936001968786811c9616801562000382575b838710146200036e578190601f968781116200031b575b508390878311600114620002b7578592620002ab575b5050600019600383901b1c191690871b1782555b8251948511620002975785548681811c911680156200028c575b8282101462000278579081858796959493116200021f575b5080938511600114620001b8575092620001ac575b5050600019600383901b1c191690821b1790555b60018060a01b039384928360018060a01b031997168760025416176002556003556005551683600654161760065516906007541617600755604051610e9c9081620004568239f35b01519050388062000150565b868252808220879650939291601f198616915b828210620002055750508411620001eb575b505050811b01905562000164565b015160001960f88460031b161c19169055388080620001dd565b8484015186558897909501949384019390810190620001cb565b9091929394508683528183208580880160051c8201928489106200026e575b9188978a9297969594930160051c01915b8281106200025f5750506200013b565b8481558897508991016200024f565b925081926200023e565b634e487b7160e01b83526022600452602483fd5b90607f169062000123565b634e487b7160e01b82526041600452602482fd5b015190503880620000f5565b8580528486208a94509190601f198416875b87828210620003045750508411620002ea575b505050811b01825562000109565b015160001960f88460031b161c19169055388080620002dc565b8385015186558d97909501949384019301620002c9565b9091508480528385208780850160051c82019286861062000364575b918b91869594930160051c01915b82811062000355575050620000df565b8781558594508b910162000345565b9250819262000337565b634e487b7160e01b84526022600452602484fd5b95607f1695620000c8565b634e487b7160e01b600052604160045260246000fd5b600080fd5b6040519190601f01601f191682016001600160401b038111838210176200038d57604052565b919080601f84011215620003a35782516001600160401b0381116200038d5760209062000404601f8201601f19168301620003a8565b92818452828287010111620003a35760005b8181106200042c57508260009394955001015290565b858101830151848201840152820162000416565b51906001600160a01b0382168203620003a35756fe6080604081815260048036101561001557600080fd5b600092833560e01c908163013cf08b14610cf5575080630d61b51914610c5d5780631614665c1461092657806316fc486914610907578063180fd87f1461087357806324600fc31461070b578063400e3949146106ec5780634a79d50c1461064e5780637284e4161461056d5780638da5cb5b14610544578063953b8fb8146105255780639d76ea58146104fc578063c255343e146104cf578063cc6cb19a14610496578063d5cef1331461031b578063de2ed893146102fe5763ed88c68e146100de57600080fd5b826003193601126102fa5734156102a6576003549182156102535760075481516318160ddd60e01b81526020946001600160a01b03909216919085818681865afa908115610249578791610218575b50803402903482040361020557869186910492604485518094819363a9059cbb60e01b8352338a8401528760248401525af180156101fb576101c0575b507f4b0304ab2f313234b1cea012339c8f8c3bf2c8bb357d81a579cfdb35d2e3d03092338652600885528286206101a2348254610ddb565b90556101af348254610ddb565b90558151933485528401523392a280f35b8481813d83116101f4575b6101d58183610d5a565b810103126101f05751801515036101ec573861016a565b8480fd5b8580fd5b503d6101cb565b83513d88823e3d90fd5b634e487b7160e01b875260118552602487fd5b90508581813d8311610242575b61022f8183610d5a565b8101031261023e57513861012d565b8680fd5b503d610225565b84513d89823e3d90fd5b906020608492519162461bcd60e51b8352820152602760248201527f54617267657420616d6f756e74206d7573742062652067726561746572207468604482015266616e207a65726f60c81b6064820152fd5b6020608492519162461bcd60e51b8352820152602960248201527f446f6e6174696f6e20616d6f756e74206d7573742062652067726561746572206044820152687468616e207a65726f60b81b6064820152fd5b8280fd5b50346102fa57826003193601126102fa5760209250549051908152f35b50346102fa57826003193601126102fa578054600354111561045c573383526020600881528284205415610423573384526008815282842054600554116103e857338452600881528284209184835493558054908382039182116103d5575583808380156103cb575b8280929181923390f1156103bf577f3367befd2b2f39615cd79917c2153263c4af1d3945ec003e5d5bfc13a8d858339192519283523392a280f35b505051903d90823e3d90fd5b6108fc9150610384565b634e487b7160e01b865260119052602485fd5b606492519162461bcd60e51b835282015260186024820152771499599d5b99081d1a1c995cda1bdb19081b9bdd081b595d60421b6044820152fd5b606492519162461bcd60e51b83528201526016602482015275139bc8191bdb985d1a5bdb9cc81d1bc81c99599d5b9960521b6044820152fd5b6020606492519162461bcd60e51b8352820152601560248201527415185c99d95d08185b5bdd5b9d081c995858da1959605a1b6044820152fd5b50346102fa5760203660031901126102fa57356001600160a01b038116908190036102fa57828291602094526008845220549051908152f35b5050346104f857816003193601126104f85760025490516001600160a01b039091168152602090f35b5080fd5b5050346104f857816003193601126104f85760075490516001600160a01b039091168152602090f35b5050346104f857816003193601126104f8576020906003549051908152f35b5050346104f857816003193601126104f85760065490516001600160a01b039091168152602090f35b5090346102fa57826003193601126102fa5780519183600180549182821c928281168015610644575b6020958686108214610631575084885290811561060f57506001146105d5575b6105d186866105c7828b0383610d5a565b5191829182610d92565b0390f35b9295508083528583205b8284106105fc57505050826105d1946105c79282010194386105b6565b80548685018801529286019281016105df565b60ff191687860152505050151560051b83010192506105c7826105d1386105b6565b634e487b7160e01b845260229052602483fd5b93607f1693610596565b5090346102fa57826003193601126102fa578051918380549060019082821c9282811680156106e2575b6020958686108214610631575084885290811561060f57506001146106a8576105d186866105c7828b0383610d5a565b8080949750528583205b8284106106cf57505050826105d1946105c79282010194386105b6565b80548685018801529286019281016106b2565b93607f1693610678565b5050346104f857816003193601126104f857602090600a549051908152f35b50346102fa57826003193601126102fa57600a546000198101908111610860578352600960205260ff6003838520015460081c161561081f578054600354116107e1576006546001600160a01b039190821633036107945750828080809360025416479082821561078b575bf115610781575080f35b51903d90823e3d90fd5b506108fc610777565b608490602084519162461bcd60e51b8352820152602160248201527f4f6e6c7920746865206f776e65722063616e2077697468647261772066756e646044820152607360f81b6064820152fd5b6020606492519162461bcd60e51b8352820152601960248201527815185c99d95d08185b5bdd5b9d081b9bdd081c995858da1959603a1b6044820152fd5b6020606492519162461bcd60e51b8352820152601c60248201527b119d5b991cc81dda5d1a191c985dd85b081b9bdd08185b1b1bddd95960221b6044820152fd5b634e487b7160e01b845260118252602484fd5b5090346102fa57826003193601126102fa57600a549160001983146108f4575060038160209460018501600a5584815260098652203360018060a01b03198254161781550161ff001981541690557fcd423cc1203c0af96b9b3d68d73b3064a69de2d14450bb7181c5e5df2132b3588180518481523386820152a151908152f35b634e487b7160e01b845260119052602483fd5b5050346104f857816003193601126104f8576020906005549051908152f35b509190346104f857806003193601126104f857602492833591821515908184036101ec57823585526020600981528186209661096960ff60038a01541615610dfe565b87546001600160a01b03969087163314610c1d57600189019687549160028b019061099682548095610ddb565b9383600754169188516370a0823160e01b96878252338d83015289828a81885afa918215610c11578f92610bde575b501015610b9e5760ff898e9f9c809e9f9a9b9c9d01993381528a8c52205416610b6c5715610ab75750505090849160075416928651809481938252338b8301525afa908115610aad578891610a60575b509086610a3860609796959493600080516020610e478339815191529954610ddb565b90555b3388528152818720600160ff198254161790558151933584523390840152820152a180f35b959493928092915086813d8311610aa6575b610a7c8183610d5a565b81010312610aa25794519394929391929091600080516020610e47833981519152610a15565b8780fd5b503d610a72565b84513d8a823e3d90fd5b939195969780999a9b5088935094909451809581938252338d8301525afa918215610b62578992610b0c575b5091610b05600080516020610e47833981519152989694926060989694610ddb565b9055610a3b565b97959391509593918288813d8311610b5b575b610b298183610d5a565b81010312610b5757610b05606097600080516020610e47833981519152995193959799509193959750610ae3565b8880fd5b503d610b1f565b86513d8b823e3d90fd5b895162461bcd60e51b8152808d018a9052600d818901526c105b1c9958591e481d9bdd1959609a1b6044820152606490fd5b885162461bcd60e51b8152808c01899052601b818901527a496e73756666696369656e7420746f6b656e7320746f20766f746560281b6044820152606490fd5b9091508981813d8311610c0a575b610bf68183610d5a565b81010312610c06575190386109c5565b8e80fd5b503d610bec565b8f8c51903d90823e3d90fd5b835162461bcd60e51b8152808701849052601b818401527a10d85b9b9bdd081d9bdd19481bdb881bdddb881c1c9bdc1bdcd85b602a1b6044820152606490fd5b5090346102fa5760203660031901126102fa577f948f4a9cd986f1118c3fbd459f7a22b23c0693e1ca3ef06a6a8be5aa7d39cc039135808452600960205260ff8285206003810190815490610cb484831615610dfe565b6002600182015491015410610ce4575b506001821982541617809155835192835260081c1615156020820152a180f35b61ff00191661010017815538610cc4565b9291905034610d56576020366003190112610d5657908060a09460ff93358152600960205220600180861b038154169160018201546003600284015493015493865260208601528401528181161515606084015260081c1615156080820152f35b8380fd5b90601f8019910116810190811067ffffffffffffffff821117610d7c57604052565b634e487b7160e01b600052604160045260246000fd5b6020808252825181830181905290939260005b828110610dc757505060409293506000838284010152601f8019910116010190565b818101860151848201604001528501610da5565b91908201809211610de857565b634e487b7160e01b600052601160045260246000fd5b15610e0557565b60405162461bcd60e51b8152602060048201526019602482015278141c9bdc1bdcd85b08185b1c9958591e48195e1958dd5d1959603a1b6044820152606490fdfe0def80f9a3b4c7a4251442658ccf516bf33ea4acaf31638fc6da8ebdb0f64c72a2646970667358221220cbbaa56b36c312d43edc082ae978389246662947e5682585aad6a2e60a713d5564736f6c6343000814003360406080815262000c54803803806200001881620003e1565b9283398101606082820312620003dc57815191602091828201519160018060401b0392838111620003dc57826200005191830162000407565b9186820151848111620003dc576200006a920162000407565b918151818111620002dc576003908154906001948583811c93168015620003d1575b88841014620003bb578190601f9384811162000365575b508890848311600114620002fe57600092620002f2575b505060001982851b1c191690851b1782555b8451928311620002dc5760049485548581811c91168015620002d1575b88821014620002bc5782811162000271575b50869184116001146200020657938394918492600095620001fa575b50501b92600019911b1c19161781555b3315620001e35760058054336001600160a01b0319821681179092556001600160a01b03167f8be0079c531659141344cd1fd0a4f28419497f9722a3daafe3b4186f6b6457e0600080a360025490838201809211620001ce57506000917fddf252ad1be2c89b69c2b068fc378daa952ba7f163c4a11628f55a4df523b3ef9160025533835282815284832084815401905584519384523393a3516107da90816200047a8239f35b601190634e487b7160e01b6000525260246000fd5b6024906000855191631e4fbdf760e01b8352820152fd5b01519350388062000117565b9190601f198416928660005284886000209460005b8a898383106200025957505050106200023e575b50505050811b01815562000127565b01519060f884600019921b161c19169055388080806200022f565b8686015189559097019694850194889350016200021b565b86600052876000208380870160051c8201928a8810620002b2575b0160051c019086905b828110620002a5575050620000fb565b6000815501869062000295565b925081926200028c565b602287634e487b7160e01b6000525260246000fd5b90607f1690620000e9565b634e487b7160e01b600052604160045260246000fd5b015190503880620000ba565b90879350601f19831691866000528a6000209260005b8c8282106200034e575050841162000335575b505050811b018255620000cc565b015160001983871b60f8161c1916905538808062000327565b8385015186558b9790950194938401930162000314565b90915084600052886000208480850160051c8201928b8610620003b1575b918991869594930160051c01915b828110620003a1575050620000a3565b6000815585945089910162000391565b9250819262000383565b634e487b7160e01b600052602260045260246000fd5b92607f16926200008c565b600080fd5b6040519190601f01601f191682016001600160401b03811183821017620002dc57604052565b919080601f84011215620003dc5782516001600160401b038111620002dc576020906200043d601f8201601f19168301620003e1565b92818452828287010111620003dc5760005b8181106200046557508260009394955001015290565b85810183015184820184015282016200044f56fe6080604081815260048036101561001557600080fd5b600092833560e01c90816306fdde031461054057508063095ea7b31461049757806318160ddd1461047857806323b872dd1461038f578063313ce5671461037357806370a082311461033c578063715018a6146102dc5780638da5cb5b146102b357806395d89b41146101b1578063a9059cbb14610180578063dd62ed3e146101335763f2fde38b146100a757600080fd5b3461012f57602036600319011261012f576100c0610660565b906100c9610691565b6001600160a01b03918216928315610119575050600580546001600160a01b031981168417909155167f8be0079c531659141344cd1fd0a4f28419497f9722a3daafe3b4186f6b6457e08380a380f35b51631e4fbdf760e01b8152908101849052602490fd5b8280fd5b50503461017c578060031936011261017c5780602092610151610660565b61015961067b565b6001600160a01b0391821683526001865283832091168252845220549051908152f35b5080fd5b50503461017c578060031936011261017c576020906101aa6101a0610660565b60243590336106bd565b5160018152f35b5091903461017c578160031936011261017c57805190828454600181811c908083169283156102a9575b60209384841081146102965783885290811561027a5750600114610242575b505050829003601f01601f19168201926001600160401b0384118385101761022f575082918261022b925282610617565b0390f35b634e487b7160e01b815260418552602490fd5b919250868652828620918387935b83851061026657505050508301013880806101fa565b805488860183015293019284908201610250565b60ff1916878501525050151560051b84010190503880806101fa565b634e487b7160e01b895260228a52602489fd5b91607f16916101db565b50503461017c578160031936011261017c5760055490516001600160a01b039091168152602090f35b83346103395780600319360112610339576102f5610691565b600580546001600160a01b0319811690915581906001600160a01b03167f8be0079c531659141344cd1fd0a4f28419497f9722a3daafe3b4186f6b6457e08280a380f35b80fd5b50503461017c57602036600319011261017c5760209181906001600160a01b03610364610660565b16815280845220549051908152f35b50503461017c578160031936011261017c576020905160128152f35b508234610339576060366003190112610339576103aa610660565b6103b261067b565b916044359360018060a01b0383168083526001602052868320338452602052868320549160001983036103ee575b6020886101aa8989896106bd565b86831061045657811561043f573315610428575082526001602090815286832033845281529186902090859003905582906101aa876103e0565b8751634a1406b160e11b8152908101849052602490fd5b875163e602df0560e01b8152908101849052602490fd5b9050610474868851938493637dc7a0d960e11b855233908501610786565b0390fd5b50503461017c578160031936011261017c576020906002549051908152f35b503461012f578160031936011261012f576104b0610660565b602435903315610529576001600160a01b031691821561051257508083602095338152600187528181208582528752205582519081527f8c5be1e5ebec7d5bd14f71427d1e84f3dd0314c0f7b2291e5b200ac8c7c3b925843392a35160018152f35b8351634a1406b160e11b8152908101859052602490fd5b835163e602df0560e01b8152808401869052602490fd5b849150833461012f578260031936011261012f5782600354600181811c9080831692831561060d575b6020938484108114610296578388529081156105f157506001146105b857505050829003601f01601f19168201926001600160401b0384118385101761022f575082918261022b925282610617565b91925060038652828620918387935b8385106105dd57505050508301018580806101fa565b8054888601830152930192849082016105c7565b60ff1916878501525050151560051b84010190508580806101fa565b91607f1691610569565b6020808252825181830181905290939260005b82811061064c57505060409293506000838284010152601f8019910116010190565b81810186015184820160400152850161062a565b600435906001600160a01b038216820361067657565b600080fd5b602435906001600160a01b038216820361067657565b6005546001600160a01b031633036106a557565b60405163118cdaa760e01b8152336004820152602490fd5b916001600160a01b0380841692831561076d57169283156107545760009083825281602052604082205490838210610737575091604082827fddf252ad1be2c89b69c2b068fc378daa952ba7f163c4a11628f55a4df523b3ef958760209652828652038282205586815220818154019055604051908152a3565b6104748460405193849363391434e360e21b855260048501610786565b60405163ec442f0560e01b815260006004820152602490fd5b604051634b637e8f60e11b815260006004820152602490fd5b604091949392606082019560018060a01b031682526020820152015256fea2646970667358221220eb42f5e7e310a2f2a6e28009f3c48ad0d3a93c59773b3d6ea39d6ea9fbaa48d964736f6c63430008140033a264697066735822122017a79fe3343e86aa9e3db28e62f6927b80c1e15ca576fbbb143b925a375b7e8064736f6c63430008140033",
  "devdoc": {
    "kind": "dev",
    "methods": {},
    "version": 1
  },
  "userdoc": {
    "kind": "user",
    "methods": {},
    "version": 1
  },
  "storageLayout": {
    "storage": [],
    "types": null
  }
}