{
  "address": "0x6Af27516BCC6C0c723e3DCcA20780fb3708Fe82A",
  "abi": [
    {
      "inputs": [],
      "stateMutability": "nonpayable",
      "type": "constructor"
    },
    {
      "inputs": [
        {
          "internalType": "uint256",
          "name": "_index",
          "type": "uint256"
        }
      ],
      "name": "acceptDemand",
      "outputs": [],
      "stateMutability": "nonpayable",
      "type": "function"
    },
    {
      "inputs": [
        {
          "internalType": "address",
          "name": "_admin",
          "type": "address"
        }
      ],
      "name": "addAdmin",
      "outputs": [],
      "stateMutability": "nonpayable",
      "type": "function"
    },
    {
      "inputs": [
        {
          "internalType": "string",
          "name": "_name",
          "type": "string"
        },
        {
          "internalType": "string",
          "name": "_description",
          "type": "string"
        },
        {
          "internalType": "string",
          "name": "_email",
          "type": "string"
        },
        {
          "internalType": "string",
          "name": "_phoneNumber",
          "type": "string"
        },
        {
          "internalType": "string",
          "name": "_country",
          "type": "string"
        },
        {
          "internalType": "string",
          "name": "_streetAddress",
          "type": "string"
        },
        {
          "internalType": "string",
          "name": "_city",
          "type": "string"
        },
        {
          "internalType": "string",
          "name": "_state",
          "type": "string"
        },
        {
          "internalType": "string",
          "name": "_postalCode",
          "type": "string"
        },
        {
          "internalType": "uint256",
          "name": "_creationDate",
          "type": "uint256"
        },
        {
          "internalType": "uint256",
          "name": "_size",
          "type": "uint256"
        },
        {
          "internalType": "string",
          "name": "_domain",
          "type": "string"
        }
      ],
      "name": "addDemand",
      "outputs": [],
      "stateMutability": "nonpayable",
      "type": "function"
    },
    {
      "inputs": [
        {
          "internalType": "uint256",
          "name": "",
          "type": "uint256"
        }
      ],
      "name": "admins",
      "outputs": [
        {
          "internalType": "address",
          "name": "",
          "type": "address"
        }
      ],
      "stateMutability": "view",
      "type": "function"
    },
    {
      "inputs": [
        {
          "internalType": "uint256",
          "name": "",
          "type": "uint256"
        }
      ],
      "name": "demands",
      "outputs": [
        {
          "components": [
            {
              "internalType": "string",
              "name": "name",
              "type": "string"
            },
            {
              "internalType": "string",
              "name": "description",
              "type": "string"
            },
            {
              "internalType": "string",
              "name": "email",
              "type": "string"
            },
            {
              "internalType": "string",
              "name": "phoneNumber",
              "type": "string"
            },
            {
              "internalType": "string",
              "name": "country",
              "type": "string"
            },
            {
              "internalType": "string",
              "name": "streetAddress",
              "type": "string"
            },
            {
              "internalType": "string",
              "name": "city",
              "type": "string"
            },
            {
              "internalType": "string",
              "name": "state",
              "type": "string"
            },
            {
              "internalType": "string",
              "name": "postalCode",
              "type": "string"
            },
            {
              "internalType": "uint256",
              "name": "creationDate",
              "type": "uint256"
            },
            {
              "internalType": "uint256",
              "name": "size",
              "type": "uint256"
            },
            {
              "internalType": "string",
              "name": "domain",
              "type": "string"
            }
          ],
          "internalType": "struct PlateformContract.Association",
          "name": "association",
          "type": "tuple"
        },
        {
          "internalType": "address",
          "name": "owner",
          "type": "address"
        },
        {
          "internalType": "enum PlateformContract.Status",
          "name": "status",
          "type": "uint8"
        }
      ],
      "stateMutability": "view",
      "type": "function"
    },
    {
      "inputs": [],
      "name": "getAllDemands",
      "outputs": [
        {
          "components": [
            {
              "components": [
                {
                  "internalType": "string",
                  "name": "name",
                  "type": "string"
                },
                {
                  "internalType": "string",
                  "name": "description",
                  "type": "string"
                },
                {
                  "internalType": "string",
                  "name": "email",
                  "type": "string"
                },
                {
                  "internalType": "string",
                  "name": "phoneNumber",
                  "type": "string"
                },
                {
                  "internalType": "string",
                  "name": "country",
                  "type": "string"
                },
                {
                  "internalType": "string",
                  "name": "streetAddress",
                  "type": "string"
                },
                {
                  "internalType": "string",
                  "name": "city",
                  "type": "string"
                },
                {
                  "internalType": "string",
                  "name": "state",
                  "type": "string"
                },
                {
                  "internalType": "string",
                  "name": "postalCode",
                  "type": "string"
                },
                {
                  "internalType": "uint256",
                  "name": "creationDate",
                  "type": "uint256"
                },
                {
                  "internalType": "uint256",
                  "name": "size",
                  "type": "uint256"
                },
                {
                  "internalType": "string",
                  "name": "domain",
                  "type": "string"
                }
              ],
              "internalType": "struct PlateformContract.Association",
              "name": "association",
              "type": "tuple"
            },
            {
              "internalType": "address",
              "name": "owner",
              "type": "address"
            },
            {
              "internalType": "enum PlateformContract.Status",
              "name": "status",
              "type": "uint8"
            }
          ],
          "internalType": "struct PlateformContract.Demand[]",
          "name": "",
          "type": "tuple[]"
        }
      ],
      "stateMutability": "view",
      "type": "function"
    },
    {
      "inputs": [
        {
          "internalType": "uint256",
          "name": "_index",
          "type": "uint256"
        }
      ],
      "name": "refuseDemand",
      "outputs": [],
      "stateMutability": "nonpayable",
      "type": "function"
    },
    {
      "inputs": [
        {
          "internalType": "address",
          "name": "_associationFactory",
          "type": "address"
        }
      ],
      "name": "setAssociationFactory",
      "outputs": [],
      "stateMutability": "nonpayable",
      "type": "function"
    }
  ],
  "transactionHash": "0xec791e09f46b3006a260243036728ad61917171493b40ec5f5610dbfa430fc3a",
  "args": [],
  "numDeployments": 3,
  "solcInputHash": "837d3eef6b2323079747b7c45f19b180",
  "bytecode": "0x6080806040523461009c57600154680100000000000000008110156100865760018101806001558110156100705760016000527fb10e2d527612073b26eecdfd717e6a320cf44b4afac2b0732d9fcbe2b7fa0cf60180546001600160a01b031916331790556118ca90816100a28239f35b634e487b7160e01b600052603260045260246000fd5b634e487b7160e01b600052604160045260246000fd5b600080fdfe6080604052600436101561001257600080fd5b60003560e01c80630eb1f83e14610e5557806314bfd6d014610e13578063337ef37514610d815780636541a69c14610c805780637048027514610bd2578063940c62a814610178578063b4ef33a1146100ed5763f62de8281461007457600080fd5b346100e85760203660031901126100e8576004356000548110156100e85761009e6100c49161146d565b50600c6100aa8261157e565b9101546100e46040519384936060855260608501906112c3565b6001600160a01b038316602085015291604084019060a01c60ff166113b2565b0390f35b600080fd5b346100e85760203660031901126100e85760008060018054925b83811061013a575b61011883611659565b600c61012560043561146d565b5001805460ff60a01b1916600160a01b179055005b61014381611252565b905460039190911b1c6001600160a01b03163314610169576101649061164a565b610107565b5090506101189150828061010f565b346100e8576101803660031901126100e8576004356001600160401b0381116100e8576101a9903690600401611417565b6024356001600160401b0381116100e8576101c8903690600401611417565b6044356001600160401b0381116100e8576101e7903690600401611417565b6064356001600160401b0381116100e857610206903690600401611417565b6084356001600160401b0381116100e857610225903690600401611417565b60a4356001600160401b0381116100e857610244903690600401611417565b60c4356001600160401b0381116100e857610263903690600401611417565b9160e4356001600160401b0381116100e857610283903690600401611417565b93610104356001600160401b0381116100e8576102a4903690600401611417565b95610164356001600160401b0381116100e8576102c5903690600401611417565b97604051996102d38b6113bf565b8a5260208a015260408901526060880152608087015260a086015260c085015260e0840152610100830152610124356101208301526101443561014083015261016082015260405190610325826113db565b815233602082015260006040820181905254600160401b8110156107a757806001610353920160005561146d565b610bbc57815180519283516001600160401b0381116107a7576103808161037a865461149e565b8661172e565b602094601f8211600114610b5657948192939495600092610b4b575b50508160011b916000199060031b1c19161783555b602082015180516001600160401b0381116107a7578060018601926103da8261037a865461149e565b602090601f8311600114610ae557600092610ada575b50508160011b916000199060031b1c19161790555b60408201519283516001600160401b0381116107a7576104358161042c600285015461149e565b6002850161172e565b602094601f8211600114610a6e57948192939495600092610a63575b50508160011b916000199060031b1c19161760028201555b606083015180516001600160401b0381116107a7578060038401926104928261037a865461149e565b602090601f83116001146109fd576000926109f2575b50508160011b916000199060031b1c19161790555b608083015180516001600160401b0381116107a7578060048401926104e68261037a865461149e565b602090601f831160011461098c57600092610981575b50508160011b916000199060031b1c19161790555b60a083015180516001600160401b0381116107a75780600584019261053a8261037a865461149e565b602090601f831160011461091b57600092610910575b50508160011b916000199060031b1c19161790555b60c083015180516001600160401b0381116107a75780600684019261058e8261037a865461149e565b602090601f83116001146108aa5760009261089f575b50508160011b916000199060031b1c19161790555b60e083015180516001600160401b0381116107a7578060078401926105e28261037a865461149e565b602090601f83116001146108395760009261082e575b50508160011b916000199060031b1c19161790555b61010083015180516001600160401b0381116107a7578060088401926106378261037a865461149e565b602090601f83116001146107c8576000926107bd575b50508160011b916000199060031b1c19161790555b6101208301516009820155610140830151600a820155610160600b82019301519283516001600160401b0381116107a7576106a7816106a1845461149e565b8461172e565b6020601f8211600114610739579080600c9493926040969760009261072e575b50508160011b916000199060031b1c19161790555b6020840151910180546001600160a01b0319166001600160a01b0392909216919091178155910151600281101561071857610716916116b0565b005b634e487b7160e01b600052602160045260246000fd5b0151905087806106c7565b601f198216958360005260206000209660005b81811061078f5750966001928492600c9796956040999a10610776575b505050811b0190556106dc565b015160001960f88460031b161c19169055878080610769565b8383015189556001909801976020938401930161074c565b634e487b7160e01b600052604160045260246000fd5b01519050868061064d565b6000858152602081209350601f198516905b81811061081657509084600195949392106107fd575b505050811b019055610662565b015160001960f88460031b161c191690558680806107f0565b929360206001819287860151815501950193016107da565b0151905086806105f8565b6000858152602081209350601f198516905b818110610887575090846001959493921061086e575b505050811b01905561060d565b015160001960f88460031b161c19169055868080610861565b9293602060018192878601518155019501930161084b565b0151905086806105a4565b6000858152602081209350601f198516905b8181106108f857509084600195949392106108df575b505050811b0190556105b9565b015160001960f88460031b161c191690558680806108d2565b929360206001819287860151815501950193016108bc565b015190508680610550565b6000858152602081209350601f198516905b8181106109695750908460019594939210610950575b505050811b019055610565565b015160001960f88460031b161c19169055868080610943565b9293602060018192878601518155019501930161092d565b0151905086806104fc565b6000858152602081209350601f198516905b8181106109da57509084600195949392106109c1575b505050811b019055610511565b015160001960f88460031b161c191690558680806109b4565b9293602060018192878601518155019501930161099e565b0151905086806104a8565b6000858152602081209350601f198516905b818110610a4b5750908460019594939210610a32575b505050811b0190556104bd565b015160001960f88460031b161c19169055868080610a25565b92936020600181928786015181550195019301610a0f565b015190508580610451565b601f198216956002840160005260206000209160005b888110610ac257508360019596979810610aa9575b505050811b016002820155610469565b015160001960f88460031b161c19169055858080610a99565b91926020600181928685015181550194019201610a84565b0151905086806103f0565b6000858152602081209350601f198516905b818110610b335750908460019594939210610b1a575b505050811b019055610405565b015160001960f88460031b161c19169055868080610b0d565b92936020600181928786015181550195019301610af7565b01519050858061039c565b601f198216958560005260206000209160005b888110610ba457508360019596979810610b8b575b505050811b0183556103b1565b015160001960f88460031b161c19169055858080610b7e565b91926020600181928685015181550194019201610b69565b634e487b7160e01b600052600060045260246000fd5b346100e85760203660031901126100e8576001600160a01b03600435818116908190036100e85760009060006001908154905b818110610c4b575b50909192610c1a90611659565b600160401b8110156107a75781610c349282019055611252565b909283549160031b92831b921b1916179055600080f35b85610c5582611252565b919054339260031b1c1614610c7257610c6d9061164a565b610c05565b509092508290610c1a610c0d565b346100e85760003660031901126100e8576000546001600160401b0381116107a75760405190602090610cb8828260051b01846113f6565b808352818301908160008052836000206000915b838310610d5e5750505050604051918083019381845251809452604083019360408160051b85010192916000955b828710610d075785850386f35b909192938280600192603f19898203018552610d4e885191604080610d34855160608086528501906112c3565b94888060a01b0387820151168785015201519101906113b2565b9601920196019592919092610cfa565b600d86600192610d70859a999a6116d4565b815201920192019190959495610ccc565b346100e85760203660031901126100e8576004356001600160a01b03818116918290036100e857600080916001908154935b848110610ddb575b85610dc585611659565b600280546001600160a01b031916919091179055005b81610de582611252565b919054339260031b1c1614610e0257610dfd9061164a565b610db3565b50509050610dc59150838080610dbb565b346100e85760203660031901126100e8576004356001548110156100e857610e3c602091611252565b905460405160039290921b1c6001600160a01b03168152f35b346100e85760203660031901126100e85760018054600435916000805b838110611214575b50610e86919250611659565b610e98610e928361146d565b506116d4565b6000549092600019918281019081116111fe57610eb7610ebe9161146d565b509161146d565b919091610bbc578082141580611110575b50505060005480156110fa570190610ee68261146d565b919091610bbc57610ef68261184b565b8101610f019061184b565b610f0d6002820161184b565b610f196003820161184b565b610f256004820161184b565b610f316005820161184b565b610f3d6006820161184b565b610f496007820161184b565b610f556008820161184b565b600060098201819055600a820155610f6f600b820161184b565b600c016000905560005551600160a01b6001900390816002541681516020830151906040840151936060810151608082015160a083015160c084015160e08501519161010086015193610120870151966101400151956040519b8c9a8b9a637bef4a6960e11b8c5260048c0161016090526101648c01610fee91611283565b8b81036003190160248d015261100391611283565b8a81036003190160448c015261101891611283565b8981036003190160648b015261102d91611283565b8881036003190160848a015261104291611283565b8781036003190160a489015261105791611283565b8681036003190160c488015261106c91611283565b8581036003190160e487015261108191611283565b8481036003190161010486015261109791611283565b9161012484015261014483015203815a602094600091f180156110ee576110ba57005b6020813d6020116110e6575b816110d3602093836113f6565b810103126100e85751908116036100e857005b3d91506110c6565b6040513d6000823e3d90fd5b634e487b7160e01b600052603160045260246000fd5b600c806111459460ff9361114d575b01920160018060a01b0381541660018060a01b03198454161783555460a01c16906116b0565b838080610ecf565b6111578582611773565b611165888601898301611773565b6111756002860160028301611773565b6111856003860160038301611773565b6111956004860160048301611773565b6111a56005860160058301611773565b6111b56006860160068301611773565b6111c56007860160078301611773565b6111d56008860160088301611773565b60098501546009820155600a850154600a8201556111f9600b8601600b8301611773565b61111f565b634e487b7160e01b600052601160045260246000fd5b61121d81611252565b905460039190911b1c6001600160a01b031633146112435761123e9061164a565b610e72565b50509050610e86818291610e7a565b60015481101561126d57600160005260206000200190600090565b634e487b7160e01b600052603260045260246000fd5b919082519283825260005b8481106112af575050826000602080949584010152601f8019910116010190565b60208183018101518483018201520161128e565b906113af9161138561137161135f61134d61133b6113296113176113056112f38951610180808d528c0190611283565b60208a01518b820360208d0152611283565b60408901518a820360408c0152611283565b606088015189820360608b0152611283565b608087015188820360808a0152611283565b60a086015187820360a0890152611283565b60c085015186820360c0880152611283565b60e084015185820360e0870152611283565b610100808401519085830390860152611283565b91610120808301519082015261014080830151908201526101608092015191818403910152611283565b90565b9060028210156107185752565b61018081019081106001600160401b038211176107a757604052565b606081019081106001600160401b038211176107a757604052565b90601f801991011681019081106001600160401b038211176107a757604052565b81601f820112156100e8578035906001600160401b0382116107a7576040519261144b601f8401601f1916602001856113f6565b828452602083830101116100e857816000926020809301838601378301015290565b90600091825481101561148a57828052600d602084209102019190565b634e487b7160e01b83526032600452602483fd5b90600182811c921680156114ce575b60208310146114b857565b634e487b7160e01b600052602260045260246000fd5b91607f16916114ad565b90604051918260008254926114ec8461149e565b90818452600194858116908160001461155b5750600114611518575b5050611516925003836113f6565b565b9093915060005260209081600020936000915b81831061154357505061151693508201013880611508565b8554888401850152948501948794509183019161152b565b91505061151694506020925060ff191682840152151560051b8201013880611508565b9060405161158b816113bf565b610160611645600b839561159e816114d8565b85526115ac600182016114d8565b60208601526115bd600282016114d8565b60408601526115ce600382016114d8565b60608601526115df600482016114d8565b60808601526115f0600582016114d8565b60a0860152611601600682016114d8565b60c0860152611612600782016114d8565b60e0860152611623600882016114d8565b6101008601526009810154610120860152600a810154610140860152016114d8565b910152565b60001981146111fe5760010190565b1561166057565b60405162461bcd60e51b815260206004820152602260248201527f4f6e6c792061646d696e732063616e2063616c6c20746869732066756e63746960448201526137b760f11b6064820152608490fd5b90600281101561071857815460ff60a01b191660a09190911b60ff60a01b16179055565b906040516116e1816113db565b60ff600c82946116f08161157e565b845201546001600160a01b038116602084015260a01c169060028210156107185760400152565b818110611722575050565b60008155600101611717565b9190601f811161173d57505050565b611516926000526020600020906020601f840160051c83019310611769575b601f0160051c0190611717565b909150819061175c565b9080821461184757611785815461149e565b906001600160401b0382116107a75781906117a48261037a865461149e565b600090601f83116001146117db576000926117d0575b50508160011b916000199060031b1c1916179055565b0154905038806117ba565b81526020808220858352818320935090601f1985169083905b82821061182e575050908460019594939210611815575b505050811b019055565b015460001960f88460031b161c1916905538808061180b565b84958192958501548155600180910196019401906117f4565b5050565b611855815461149e565b908161185f575050565b81601f60009311600114611871575055565b908083918252611890601f60208420940160051c840160018501611717565b555556fea2646970667358221220dccccaa2b10a2bc58255e998ad9d62f36d923a14df5dda6d105809a73b60f27064736f6c63430008140033",
  "devdoc": {
    "kind": "dev",
    "methods": {},
    "version": 1
  },
  "userdoc": {
    "kind": "user",
    "methods": {},
    "version": 1
  },
  "storageLayout": {
    "storage": [
      {
        "astId": 359,
        "contract": "src/services/blockchain/contracts/Plateform.sol:PlateformContract",
        "label": "demands",
        "offset": 0,
        "slot": "0",
        "type": "t_array(t_struct(Demand)355_storage)dyn_storage"
      },
      {
        "astId": 362,
        "contract": "src/services/blockchain/contracts/Plateform.sol:PlateformContract",
        "label": "admins",
        "offset": 0,
        "slot": "1",
        "type": "t_array(t_address)dyn_storage"
      },
      {
        "astId": 365,
        "contract": "src/services/blockchain/contracts/Plateform.sol:PlateformContract",
        "label": "associationFactory",
        "offset": 0,
        "slot": "2",
        "type": "t_contract(AssociationFactory)315"
      }
    ],
    "types": {
      "t_address": {
        "encoding": "inplace",
        "label": "address",
        "numberOfBytes": "20"
      },
      "t_array(t_address)dyn_storage": {
        "base": "t_address",
        "encoding": "dynamic_array",
        "label": "address[]",
        "numberOfBytes": "32"
      },
      "t_array(t_struct(Demand)355_storage)dyn_storage": {
        "base": "t_struct(Demand)355_storage",
        "encoding": "dynamic_array",
        "label": "struct PlateformContract.Demand[]",
        "numberOfBytes": "32"
      },
      "t_contract(AssociationFactory)315": {
        "encoding": "inplace",
        "label": "contract AssociationFactory",
        "numberOfBytes": "20"
      },
      "t_enum(Status)346": {
        "encoding": "inplace",
        "label": "enum PlateformContract.Status",
        "numberOfBytes": "1"
      },
      "t_string_storage": {
        "encoding": "bytes",
        "label": "string",
        "numberOfBytes": "32"
      },
      "t_struct(Association)343_storage": {
        "encoding": "inplace",
        "label": "struct PlateformContract.Association",
        "members": [
          {
            "astId": 320,
            "contract": "src/services/blockchain/contracts/Plateform.sol:PlateformContract",
            "label": "name",
            "offset": 0,
            "slot": "0",
            "type": "t_string_storage"
          },
          {
            "astId": 322,
            "contract": "src/services/blockchain/contracts/Plateform.sol:PlateformContract",
            "label": "description",
            "offset": 0,
            "slot": "1",
            "type": "t_string_storage"
          },
          {
            "astId": 324,
            "contract": "src/services/blockchain/contracts/Plateform.sol:PlateformContract",
            "label": "email",
            "offset": 0,
            "slot": "2",
            "type": "t_string_storage"
          },
          {
            "astId": 326,
            "contract": "src/services/blockchain/contracts/Plateform.sol:PlateformContract",
            "label": "phoneNumber",
            "offset": 0,
            "slot": "3",
            "type": "t_string_storage"
          },
          {
            "astId": 328,
            "contract": "src/services/blockchain/contracts/Plateform.sol:PlateformContract",
            "label": "country",
            "offset": 0,
            "slot": "4",
            "type": "t_string_storage"
          },
          {
            "astId": 330,
            "contract": "src/services/blockchain/contracts/Plateform.sol:PlateformContract",
            "label": "streetAddress",
            "offset": 0,
            "slot": "5",
            "type": "t_string_storage"
          },
          {
            "astId": 332,
            "contract": "src/services/blockchain/contracts/Plateform.sol:PlateformContract",
            "label": "city",
            "offset": 0,
            "slot": "6",
            "type": "t_string_storage"
          },
          {
            "astId": 334,
            "contract": "src/services/blockchain/contracts/Plateform.sol:PlateformContract",
            "label": "state",
            "offset": 0,
            "slot": "7",
            "type": "t_string_storage"
          },
          {
            "astId": 336,
            "contract": "src/services/blockchain/contracts/Plateform.sol:PlateformContract",
            "label": "postalCode",
            "offset": 0,
            "slot": "8",
            "type": "t_string_storage"
          },
          {
            "astId": 338,
            "contract": "src/services/blockchain/contracts/Plateform.sol:PlateformContract",
            "label": "creationDate",
            "offset": 0,
            "slot": "9",
            "type": "t_uint256"
          },
          {
            "astId": 340,
            "contract": "src/services/blockchain/contracts/Plateform.sol:PlateformContract",
            "label": "size",
            "offset": 0,
            "slot": "10",
            "type": "t_uint256"
          },
          {
            "astId": 342,
            "contract": "src/services/blockchain/contracts/Plateform.sol:PlateformContract",
            "label": "domain",
            "offset": 0,
            "slot": "11",
            "type": "t_string_storage"
          }
        ],
        "numberOfBytes": "384"
      },
      "t_struct(Demand)355_storage": {
        "encoding": "inplace",
        "label": "struct PlateformContract.Demand",
        "members": [
          {
            "astId": 349,
            "contract": "src/services/blockchain/contracts/Plateform.sol:PlateformContract",
            "label": "association",
            "offset": 0,
            "slot": "0",
            "type": "t_struct(Association)343_storage"
          },
          {
            "astId": 351,
            "contract": "src/services/blockchain/contracts/Plateform.sol:PlateformContract",
            "label": "owner",
            "offset": 0,
            "slot": "12",
            "type": "t_address"
          },
          {
            "astId": 354,
            "contract": "src/services/blockchain/contracts/Plateform.sol:PlateformContract",
            "label": "status",
            "offset": 20,
            "slot": "12",
            "type": "t_enum(Status)346"
          }
        ],
        "numberOfBytes": "416"
      },
      "t_uint256": {
        "encoding": "inplace",
        "label": "uint256",
        "numberOfBytes": "32"
      }
    }
  }
}